AMEXCEAQRO170226NPS                                                                       
6542077R3707869708630038000000090000170226RECIBO DE AGUA CONTRATO NO. 000276540           
6542077A3767231884610198000000432500170226RECIBO DE AGUA CONTRATO NO. 000308451           
6542077R3766770242740048000000042600170226RECIBO DE AGUA CONTRATO NO. 000316139           
6542077A3766672363020088000000163200170226RECIBO DE AGUA CONTRATO NO. 000334494           
6542077A3717724228830048000000093900170226RECIBO DE AGUA CONTRATO NO. 000402892           
6542077R3766749149310098000000054000170226RECIBO DE AGUA CONTRATO NO. 000493740           
6542077R3707872309820058000000139700170226RECIBO DE AGUA CONTRATO NO. 000506016           
6542077A3715742537310098000000044100170226RECIBO DE AGUA CONTRATO NO. 000521382           
6542077A3766720615510008000000056900170226RECIBO DE AGUA CONTRATO NO. 000528864           
6542077A3766637135830048000000100500170226RECIBO DE AGUA CONTRATO NO. 000530106           
6542077A3707815465430158000000724500170226RECIBO DE AGUA CONTRATO NO. 000532947           
6542077A3767237861340008000000055200170226RECIBO DE AGUA CONTRATO NO. 000548315           
6542077A3767000014410148000000083500170226RECIBO DE AGUA CONTRATO NO. 000565775           
6542077A3766670230480048000000070400170226RECIBO DE AGUA CONTRATO NO. 000593330           
6542077A3766637135830048000000150000170226RECIBO DE AGUA CONTRATO NO. 000604556           
6542077A3767280412620098000000060400170226RECIBO DE AGUA CONTRATO NO. 000622002           
6542077A3713026217610078000000150000170226RECIBO DE AGUA CONTRATO NO. 000626287           
6542077A3766678619250088000000056900170226RECIBO DE AGUA CONTRATO NO. 000713526           
6542077A3767225384610008000000083200170226RECIBO DE AGUA CONTRATO NO. 000713538           
6542077R3767296187050088000000034600170226RECIBO DE AGUA CONTRATO NO. 000736507           
ENDFILE0000200000268610000000000000000000000020000026861000000150000002325200             
