01000000131012S21600001202602160100                         COMISION ESTATAL DE AGUAS               CEA 800313C95                                                                                                                                                                                           
020000001310100000000006590020260216                        51202602160120100000000001406412890MARTINEZ ANAYA ROGELIO                  000279121                               MARTINEZ ANAYA ROGELIO                  0000000000000000022026RECIBO DE AGUA                          04                     
020000002310100000000003870020260216                        51202602160120100000000001103536106GARCIA JURADO ANDRES                    000279980                               GARCIA JURADO ANDRES                    0000000000000000022026RECIBO DE AGUA                          00                     
020000003310100000000013540020260216                        51202602160120100000000001212229307CRUZ BORJA SILVESTRE                    000280605                               GONZALEZ MAGANA SANDRA OLIVIA           0000000000000000022026RECIBO DE AGUA                          00                     
020000005310100000000007320020260216                        51202602160120100000000000141145037AGUILERA CANTON JOSE MANUEL             000281296                               MANUEL AGUILERA JOSE                    0000000000000000022026RECIBO DE AGUA                          00                     
020000010310100000000005400020260216                        51202602160120100000000000442951436CASILLAS SALAZAR PEDRO DE JESUS         000291333                               CASILLAS SALAZAR PEDRO DE JESUS         0000000000000000022026RECIBO DE AGUA                          00                     
020000013310100000000007350020260217                        51202602160120100000000002919440526LOPEZ VILLANUEVA TOMAS DAVID            000294262                               LOPEZ VILLANUEVA TOMAS DAVID            0000000000000000022026RECIBO DE AGUA                          04                     
020000014310100000000003500020260216                        51202602160120100000000001272651874RAMIREZ CABRERA MARIA GUADALUPE         000295213                               PEREA MUNOZ MARINA                      0000000000000000022026RECIBO DE AGUA                          00                     
020000020310100000000000790020260216                        51202602160120100000000000170622001GONZALEZ PARADA JOSE ANTONIO            000304686                               GONZALEZ PARADA JOSE ANTONIO            0000000000000000022026RECIBO DE AGUA                          00                     
020000021310100000000000670020260216                        51202602160120100000000000144441923ALAMILLA GALVAN JOSE ANTONIO            000305142                               RICO RAMIREZ VICENTE                    0000000000000000022026RECIBO DE AGUA                          00                     
020000023310100000000003650020260216                        51202602160120100000000001160103055AVALOS OLGUIN MARINA                    000306309                               AVALOS OLGUIN MARINA                    0000000000000000022026RECIBO DE AGUA                          00                     
020000024310100000000001600020260216                        51202602160120100000000001114960971ZENIL TREJO AMELIA                      000306762                               ZENIL TREJO AMELIA                      0000000000000000022026RECIBO DE AGUA                          00                     
020000028310100000000008270020260216                        51202602160120100000000000448017697TORRES HERRERA J. MARIN                 000318415                               GARCIA G ADRIANA                        0000000000000000022026RECIBO DE AGUA                          00                     
020000029310100000000001180020260216                        51202602160120100000000001269290664VAZQUEZ LUGO MA. LUZ HORTENSIA          000320001                               GONZALEZ ESTRADA JOSE LUIS              0000000000000000022026RECIBO DE AGUA                          00                     
020000032310100000000009750020260216                        51202602160120100000000001282715473DIAZ FLORES GUSTAVO                     000322882                               DIAZ ZEPEDA TOMAS                       0000000000000000022026RECIBO DE AGUA                          00                     
020000034310100000000004130020260216                        51202602160120100000000000481403141SIUROB ARANA JOSEFINA                   000327237                               S DE LARRACOECHE JOSEFINA               0000000000000000022026RECIBO DE AGUA                          00                     
020000038310100000000000970020260216                        51202602160120100000000001203222993AYALA GARCIA JOSE LUIS                  000331553                               AYALA GARCIA JOSE LUIS                  0000000000000000022026RECIBO DE AGUA                          00                     
020000039310100000000005520020260216                        51202602160120100000000001138432716ROLDAN FRANCO MARIA DEL CARMEN          000331691                               MUNOZ CORONA VICTOR                     0000000000000000022026RECIBO DE AGUA                          00                     
020000041310100000000011470020260216                        51202602160120100000000000134886801HERNANDEZ RAZO RAFAEL                   000333807                               HERNANDEZ RAZO RAFAEL                   0000000000000000022026RECIBO DE AGUA                          00                     
020000045310100000000002050020260216                        51202602160120100000000002952328356ROJAS FLORES MARIA HILDA                000337398                               OLVERA SALVADOR                         0000000000000000022026RECIBO DE AGUA                          00                     
020000046310100000000008410020260217                        51202602160120100000000001174743288MARTINEZ MENDOZA MA. GUADALUPE          000343186                               MENDOZA DE MARTINEZ MARIA               0000000000000000022026RECIBO DE AGUA                          04                     
020000047310100000000000980020260216                        51202602160120100000000001150701912ROMERO SANCHEZ JOSE ANGEL               000346339                               ROMERO SANCHEZ JOSE ANGEL               0000000000000000022026RECIBO DE AGUA                          00                     
020000050310100000000028580020260216                        51202602160120100000000000445558727SERRANO TRESPALACIOS JOSE CLEMENTE      000348498                               BEATRIJS MATHILDE CAMILLA HOOGSTEYNS    0000000000000000022026RECIBO DE AGUA                          00                     
020000052310100000000003430020260216                        51202602160120100000000001239570209DELGADO VIGA ENNA AURA                  000355885                               NAVARRETE DELGADO RODRIGO ALONSO        0000000000000000022026RECIBO DE AGUA                          00                     
020000053310100000000001300020260216                        51202602160120100000000000449423923LOYOLA VERA JOSE LUIS PIO               000358089                               LOYOLA VERA JOSE LUIS                   0000000000000000022026RECIBO DE AGUA                          00                     
020000055310100000000002290020260216                        51202602160120100000000002785677386GARCIA BANDA JUANA ELISA                000365565                               GARCIA C JOSE IGNACIO                   0000000000000000022026RECIBO DE AGUA                          00                     
020000056310100000000004430020260216                        51202602160120100000000001425203139MARQUEZ SANCHEZ ELVIA                   000365566                               INMOBILIARIA ALFA DE QRO ALFA DE QRO    0000000000000000022026RECIBO DE AGUA                          00                     
020000059310100000000003420020260216                        51202602160120100000000000109132228SUZAN AZPIRI HUMBERTO                   000369043                               MALDA DE SUZAN GUADALUPE                0000000000000000022026RECIBO DE AGUA                          00                     
020000061310100000000000970020260216                        51202602160120100000000001159554882MARTINEZ VELAZQUEZ ANGEL                000374465                               SAUCEDO TORRES LUISA MARIA              0000000000000000022026RECIBO DE AGUA                          00                     
020000062310100000000001140020260217                        51202602160120100000000000171282204  AUTOTRANSPORTES PIME                  000374729                               PIMENTEL CAMACHO KARLA PATRICIA         0000000000000000022026RECIBO DE AGUA                          03                     
020000063310100000000003870020260216                        51202602160120100000000001166629407GRANADOS  JOSE LUIS                     000376241                               BERNAL SILVA GABRIELA                   0000000000000000022026RECIBO DE AGUA                          00                     
020000064310100000000031490020260217                        51202602160120100000000001433411680TERAN OLVERA MARIA DE JESUS             000376680                               RICARDO LUCA ORTIZ                      0000000000000000022026RECIBO DE AGUA                          04                     
020000065310100000000003010020260216                        51202602160120100000000000447915292CHAVEZ CINTORA J ABEL EVODIO            000381240                               DOMINGUEZ DE ROMER MARTHA               0000000000000000022026RECIBO DE AGUA                          00                     
020000067310100000000030280020260216                        51202602160120100000000000453699145GUTIERREZ ORNELAS ENRIQUE               000386005                               GUTIERREZ ORNELAS ENRIQUE               0000000000000000022026RECIBO DE AGUA                          00                     
020000070310100000000004370020260216                        51202602160120100000000001102907038CERVANTES JUAREZ JUAN CARLOS            000390125                               CERVANTES JUAREZ JUAN CARLOS            0000000000000000022026RECIBO DE AGUA                          00                     
020000073310100000000005110020260216                        51202602160120100000000000446749550GALVAN FUENTES MAURICIO ANTONIO         000396868                               GALVAN FUENTES MAURICIO                 0000000000000000022026RECIBO DE AGUA                          00                     
020000074310100000000022360020260216                        51202602160120100000000001137216505DEL VALLE Y ARELLANO MARTHA             000397060                               DE S MARTHA DEL VALLE                   0000000000000000022026RECIBO DE AGUA                          00                     
020000075310100000000004430020260216                        51202602160120100000000002757239262TAMAYO SILVA YOLANDA                    000402763                               LOPEZ PARDO GEORGINA MAGDALENA          0000000000000000022026RECIBO DE AGUA                          00                     
020000076310100000000004380020260216                        51202602160120100000000000180117412LARRACOECHEA IBARRECHE MARIA GUADALUPE  000404340                               LARRACOECHEA MA GPE                     0000000000000000022026RECIBO DE AGUA                          00                     
020000077310100000000019430020260216                        51202602160120100000000000143719820DIAZ DE LA VEGA GONZALEZ EDUARDO        000405130                               CORNEJO EIVET RUBEN CARLOS              0000000000000000022026RECIBO DE AGUA                          00                     
020000079310100000000003220020260216                        51202602160120100000000001478670846LOPEZ MACIAS SOFIA ALINE                000405437                               IBELLES NAVARRO HECTOR DANIEL           0000000000000000022026RECIBO DE AGUA                          00                     
020000081310100000000005030020260216                        51202602160120100000000000104646908VALDES SAUCEDO JORGE ALEJANDRO          000412690                               RODRIGUEZ SOSA VICTORIA                 0000000000000000022026RECIBO DE AGUA                          00                     
020000082310100000000001180020260216                        51202602160120100000000001110271098RODRIGUEZ CORTES SILVIA MARTHA          000412702                               RODRIGUEZ C SILVIA                      0000000000000000022026RECIBO DE AGUA                          00                     
020000084310100000000007650020260216                        51202602160120100000000001116997120FERNANDEZ AYALA SALVADOR                000412866                               FERNANDEZ AYALA SALVADOR                0000000000000000022026RECIBO DE AGUA                          00                     
020000085310100000000037820020260216                        51202602160120100000000000443027422CERVERA SOLORZANO FERNANDO GREGORIO     000413521                               RETANA DE C MARCELA                     0000000000000000022026RECIBO DE AGUA                          00                     
020000086310100000000001590020260216                        51202602160120100000000001186548261BUENRROSTRO MERCADO MIGUEL ANGEL        000413844                               BUENRROSTRO MERCADO MIGUEL ANGEL        0000000000000000022026RECIBO DE AGUA                          00                     
020000087310100000000030940020260216                        51202602160120100000000000136185053V  EPAF MONARCA SA DE C                 000418704                               SERRANO VAZQUEZ VICTOR HUGO             0000000000000000022026RECIBO DE AGUA                          00                     
020000088310100000000003920020260216                        51202602160120100000000000159405240PEREZ RESENDIZ VICTOR HUGO              000418829                               PEREZ RESENDIZ VICTOR HUGO              0000000000000000022026RECIBO DE AGUA                          00                     
020000089310100000000005120020260216                        51202602160120100000000000142350688ICAZBALCETA OCAMPO SALVADOR SERVANDO    000419239                               VALLE DE ICZBALC VIRGINIA               0000000000000000022026RECIBO DE AGUA                          00                     
020000090310100000000001380020260216                        51202602160120100000000001121535676MARTINEZ  MARIA DEL CARMEN              000425896                               CARMEN MTEZ MA DEL                      0000000000000000022026RECIBO DE AGUA                          00                     
020000091310100000000003280020260216                        51202602160120100000000000161420925MUŃIZ MORENO DOLORES BEATRIZ            000426190                               MUNIZ MORENO DOLORES BEATRIZ            0000000000000000022026RECIBO DE AGUA                          00                     
020000093310100000000001390020260216                        51202602160120100000000001106662277ORTIGOSA TORRES CARLOS                  000428828                               ORTIGOSA TORRES CARLOS                  0000000000000000022026RECIBO DE AGUA                          00                     
020000097310100000000001820020260216                        51202602160120100000000001120230618FRANCO JAIME MARIA DEL CONSUELO J       000440829                               J FRANC MA DEL CONSUELO                 0000000000000000022026RECIBO DE AGUA                          00                     
020000098310100000000012910020260216                        51202602160120100000000001293011224RAIGOSA DIAZ MARIA DEL ROCIO            000441438                               RAIGOSA DIAZ MARIA DEL ROCIO            0000000000000000022026RECIBO DE AGUA                          00                     
020000100310100000000003790020260216                        51202602160120100000000001466046797SILL SALAZAR MARIA DE LOS ANGELES       000454595                               SILL SALAZAR MARIA DE LOS ANGELES       0000000000000000022026RECIBO DE AGUA                          00                     
020000101310100000000001220020260216                        51202602160120100000000001283184811SALINAS GUTIERREZ GRACIELA              000456584                               CORDERO ARAUJO JOSE MARIA               0000000000000000022026RECIBO DE AGUA                          00                     
020000102310100000000010050020260216                        51202602160120100000000001108546002ORDUŃA VAZQUEZ MA. ASCENCION            000457489                               MA ASCENCION ORDUNA V                   0000000000000000022026RECIBO DE AGUA                          00                     
020000108310100000000002550020260216                        51202602160120100000000001147153821VEGA FRIAS VERONICA                     000470404                               VEGA FRIAS VERONICA                     0000000000000000022026RECIBO DE AGUA                          00                     
020000110310100000000000820020260217                        51202602160120100000000000443002012CEJUDO PE#A JUAN FELIPE                 000473459                               CEJUDO PENA JUAN FELIPE                 0000000000000000022026RECIBO DE AGUA                          04                     
020000111310100000000007470020260216                        51202602160120100000000002679761799GARCIA TEJADA JOSE FELICIANO            000477602                               TEJADA GARCIA CONCEPCION                0000000000000000022026RECIBO DE AGUA                          00                     
020000114310100000000011470020260216                        51202602160120100000000001168673683GARCIA SILVA FELIPE                     000487140                               GARCIA SILVA FELIPE                     0000000000000000022026RECIBO DE AGUA                          00                     
020000115310100000000001510020260216                        51202602160120100000000001108544999MUŃOZ MENDOZA CECILIA                   000487982                               MUNOZ MENDOZA CECILIA                   0000000000000000022026RECIBO DE AGUA                          00                     
020000118310100000000010110020260216                        51202602160120100000000000150907731CARABIAS ANZORENA JORGE MARIANO         000495233                               RODRIGUEZ HERNANDEZ TERESA DE JESUS     0000000000000000022026RECIBO DE AGUA                          00                     
020000119310100000000006050020260216                        51202602160120100000000002774818229MUŃOZ SERRATO JUANA GABRIELA            000495848                               MUNOZ SERRATO JUANA GABRIELA            0000000000000000022026RECIBO DE AGUA                          00                     
020000120310100000000004120020260216                        51202602160120100000000001450638218RAMIREZ MARTINEZ ANTONIO                000499565                               RAMIREZ MARTINEZ ANTONIO                0000000000000000022026RECIBO DE AGUA                          00                     
020000121310100000000005120020260216                        51202602160120100000000000141145037AGUILERA CANTON JOSE MANUEL             000502518                               GUADALUPE DE A PILAR                    0000000000000000022026RECIBO DE AGUA                          00                     
020000122310100000000005120020260216                        51202602160120100000000001236633323MUNGUIA OLVERA RAYMUNDA                 000504696                               BUCIO ALANIS MA CRISTINA                0000000000000000022026RECIBO DE AGUA                          00                     
020000124310100000000000780020260216                        51202602160120100000000001112401665SALAZAR MARQUEZ MANUEL HORACIO          000508258                               SALAZAR MARQUEZ MANUEL HORACIO          0000000000000000022026RECIBO DE AGUA                          00                     
020000125310100000000003640020260216                        51202602160120100000000000141145037AGUILERA CANTON JOSE MANUEL             000513587                               SANCHEZ CHIBRAS PILAR GUADALUPE         0000000000000000022026RECIBO DE AGUA                          00                     
020000126310100000000001600020260216                        51202602160120100000000001210554006SANTIBAŃEZ CARVAJAL MA. ELENA           000515562                               FIGUEROA SANTIBANEZ CELESTE             0000000000000000022026RECIBO DE AGUA                          00                     
020000127310100000000000980020260216                        51202602160120100000000001146658210UGALDE RAMIREZ MA. SANDRA               000515850                               UGALDE RAMIREZ SANDRA                   0000000000000000022026RECIBO DE AGUA                          00                     
020000131310100000000002610020260216                        51202602160120100000000002874388658ORTIZ QUIROZ JOSE ALFONSO               000526726                               ORTIZ QUIROZ ALFONSO                    0000000000000000022026RECIBO DE AGUA                          00                     
020000133310100000000164590020260216                        51202602160120100000000000443535266 DE CV  FOMENTO QUERETANO SA            000533956                               FOMENTO QUERETANO S A DE C V            0000000000000000022026RECIBO DE AGUA                          00                     
020000137310100000000003200020260216                        51202602160120100000000002921404229SERVIN MENDEZ JESSICA                   000538386                               FERRUSCA PIEDAD                         0000000000000000022026RECIBO DE AGUA                          00                     
020000138310100000000002930020260216                        51202602160120100000000001102084732DIAZ GARCIA RAFAEL                      000538727                               DIAZ GARCIA RAFAEL                      0000000000000000022026RECIBO DE AGUA                          00                     
020000140310100000000004120020260216                        51202602160120100000000001111990004CASTRO RESENDIZ JESUS AGAPITO           000538929                               ENRIQUEZ REYES MIRNA EDITH              0000000000000000022026RECIBO DE AGUA                          00                     
020000143310100000000001880020260217                        51202602160120100000000001126757308MORENO FERMIN HERIBERTO                 000542993                               MORENO FERMIN HERIBERTO                 0000000000000000022026RECIBO DE AGUA                          04                     
020000145310100000000015780020260217                        51202602160120100000000001278371938CABRERA GUTIERREZ DENISE                000544203                               CABRERA DIAZ ALEJANDRO                  0000000000000000022026RECIBO DE AGUA                          04                     
020000146310100000000012680020260217                        51202602160120100000000002982337436HERNANDEZ FORTANELL GUILLERMO           000547870                               RAMIREZ ARTEAGA RUBEN                   0000000000000000022026RECIBO DE AGUA                          04                     
020000147310100000000006390020260217                        51202602160120100000000002903872343GONZALEZ PICHARDO MARIA CANDELARIA      000552128                               BALTAZAR DE MEJORADA IRMA               0000000000000000022026RECIBO DE AGUA                          04                     
020000150310100000000001820020260216                        51202602160120100000000002617448503SALINAS RAMIREZ ROSALIA                 000555061                               SALINAS RAMIREZ ROSALIA                 0000000000000000022026RECIBO DE AGUA                          00                     
020000153310100000000000980020260216                        51202602160120100000000001106585531MELENDEZ BRISE#O CHRISTIAN              000558786                               MELENDEZ BRISENO CHRISTIAN              0000000000000000022026RECIBO DE AGUA                          00                     
020000155310100000000002050020260216                        51202602160120100000000001457652577ESTRELLA GONZALEZ CESAR                 000564397                               SE corrige distrito hiESTRELLA GONZALEZ 0000000000000000022026RECIBO DE AGUA                          00                     
020000157310100000000006380020260216                        51202602160120100000000001116321860GILIO MEDINA MARIA DEL CARMEN           000567691                               DEL LLANO GILIO ANAI                    0000000000000000022026RECIBO DE AGUA                          00                     
020000160310100000000002550020260216                        51202602160120100000000001237791887GRANADOS BALTAZAR ADELA                 000574036                               GRANADOS BALTAZAR JOSE                  0000000000000000022026RECIBO DE AGUA                          00                     
020000161310100000000009040020260216                        51202602160120100000000002794382730RODRIGUEZ FLORES CESAR                  000577490                               RODRIGUEZ DE FLORES CESAR               0000000000000000022026RECIBO DE AGUA                          00                     
020000164310100000000004750020260216                        51202602160120100000000001108537135GOMEZ PADILLA LAURA PATRICIA            000585098                               LNPEZ MALO TABOADA ADOLFO               0000000000000000022026RECIBO DE AGUA                          00                     
020000165310100000000004540020260216                        51202602160120100000000000141388045RAMOS DE LA TIJERA JOSE ANTONIO         000587634                               SALINAS VAZQUEZ ALBERTO                 0000000000000000022026RECIBO DE AGUA                          00                     
020000167310100000000005690020260216                        51202602160120100000000000157978731ROMERO ROCHA JUAN HUMBERTO              000591009                               ROMERO ROCHA JUAN HUMBERTO              0000000000000000022026RECIBO DE AGUA                          00                     
020000176310100000000002190020260216                        51202602160120100000000001199524371HERNANDEZ SANCHEZ PATRICIA SOFIA        000613155                               TOVAR VARGAS ANTONIO                    0000000000000000022026RECIBO DE AGUA                          00                     
020000177310100000000001390020260216                        51202602160120100000000001451097970MONTERO GIRON GUADALUPE YOLANDA         000614884                               OLAGUE RUIZ GLORIA                      0000000000000000022026RECIBO DE AGUA                          00                     
020000178310100000000007650020260216                        51202602160120100000000001149061525PALOMARES LOPEZ ABEL                    000617676                               PALOMARES LOPEZ ABEL                    0000000000000000022026RECIBO DE AGUA                          00                     
020000184310100000000017900020260216                        51202602160120100000000000141145037AGUILERA CANTON JOSE MANUEL             000627293                               SANCHEZ CHIBRAS PILAR G                 0000000000000000022026RECIBO DE AGUA                          00                     
020000189310100000000011470020260216                        51202602160120100000000001102433761ARELLANO CHAVEZ MARIA JOSEFINA JUANA    000640980                               ARELLANO CHAVEZ MARIA JOSEFINA JUANA    0000000000000000022026RECIBO DE AGUA                          00                     
020000190310100000000002610020260216                        51202602160120100000000002664114981BONILLA MARES MARCELA                   000642796                               MARCELA BONILLA MARES                   0000000000000000022026RECIBO DE AGUA                          00                     
020000194310100000000004430020260216                        51202602160120100000000002875294940CABALLERO PEREZ RAUL                    000656540                               PUEBLITO ARELLANO ROSA MA               0000000000000000022026RECIBO DE AGUA                          00                     
020000197310100000000006260020260216                        51202602160120100000000001186382401ARREDONDO HUERTA LILIA SILVIA           000660838                               VALENCIA PICHARDO ISIDRO                0000000000000000022026RECIBO DE AGUA                          00                     
020000201310100000000002550020260217                        51202602160120100000000002839832068MADRIGAL GONZALEZ ARTURO                000673031                               SERRANO VEGA ELSA                       0000000000000000022026RECIBO DE AGUA                          04                     
020000204310100000000004950020260216                        51202602160120100000000000443683966GARFIAS MENENDEZ RICARDO                000680323                               GARFIAS MENENDEZ RICARDO                0000000000000000022026RECIBO DE AGUA                          00                     
020000206310100000000005040020260216                        51202602160120100000000000179976205CARRANZA Y SIMON MARIA DEL CONSUELO     000686120                               CARRANZA Y SIMON MARIA DEL CONSUELO     0000000000000000022026RECIBO DE AGUA                          00                     
020000209310100000000006740020260216                        51202602160120100000000000198435952AZCARRAGA LUNA AGUSTIN                  000695574                               AZCARRAGA LUNA AGUSTIN                  0000000000000000022026RECIBO DE AGUA                          00                     
020000212310100000000002610020260216                        51202602160120100000000002798499594OLVERA MORALES SANDRA                   000699949                               OLVERA MORALES SANDRA                   0000000000000000022026RECIBO DE AGUA                          00                     
020000213310100000000004430020260216                        51202602160120100000000001131509535UNZUETA DOMINGUEZ ALBERTO               000700617                               UNZUETA DGUEZ ALBERTO                   0000000000000000022026RECIBO DE AGUA                          00                     
020000219310100000000005050020260216                        51202602160120100000000001242237466HERRERA MARTINEZ SERGIO                 000707246                               HERRERA MARTINEZ SERGIO                 0000000000000000022026RECIBO DE AGUA                          00                     
020000221310100000000012870020260217                        51202602160120100000000001116933173DIAZ LARA MARIA CONCEPCION              000708148                               VILLARUEL H MODESTO                     0000000000000000022026RECIBO DE AGUA                          04                     
020000223310100000000003300020260217                        51202602160120100000000002992190850CERVANTES CRUZ ARTURO                   000731552                               CERVANTES CRUZ ARTURO                   0000000000000000022026RECIBO DE AGUA                          04                     
020000225310100000000010750020260216                        51202602160120100000000001237782829RUIZ NORIEGA DIANA                      000738591                               RUIZ NORIEGA DIANA                      0000000000000000022026RECIBO DE AGUA                          00                     
0900001080016000010000106000000000008391200                                                                                                                                                                                                                                                                 
