1202602170000213763AGUA Y DRENAJE QUERETARO                                                                                                                                                             
22026021601003564523000000060400                           0000000604000062000801210194                                                                                                                 
22026021601004663480000000102500                           0000001025000062000501470045                                                                                                                 
22026021601004999694000000013800                           0000000138000113001001100002                                                                                                                 
22026021601003841780000000035000                           0000000350000113000101850045                                                                                                                 
22026021601003815974000000883500                           0000008835000113000101850055                                                                                                                 
22026021601004168365000000026100                           0000000261000113000101850113                                                                                                                 
22026021601004890562000000041200                           0000000412000113000101850132                                                                                                                 
22026021601007011000000000023000                           0000000230000211001001070073                                                                                                                 
22026021601004644472000000011700                           0000000117000211000901120051                                                                                                                 
22026021601006313118000000074700                           0000000747000211000901120222                                                                                                                 
22026021601006729784000000000300                           0000000003000211001201160080                                                                                                                 
22026021601005448998000000030300                           0000000303000211001201160114                                                                                                                 
22026021601006193015000000030400                           0000000304000211000701420233                                                                                                                 
22026021601300382058000000046500                           0000000465000231000301090136                                                                                                                 
22026021601004449039000000044300                           0000000443000231000801270107                                                                                                                 
22026021601004996765000000013900                           0000000139000231000101460007                                                                                                                 
22026021601003637063000000032100                           0000000321000231000101460040                                                                                                                 
22026021601004229332000000018200                           0000000182000231000101460095                                                                                                                 
22026021601004381869000000022900                           0000000229000231000101460129                                                                                                                 
22026021601004629911000000044500                           0000000445000233000302460078                                                                                                                 
22026021601300469152000000048500                           0000000485000233000502660097                                                                                                                 
22026021601004878682000000032100                           0000000321000233000802930039                                                                                                                 
22026021601300271038000000059700                           0000000597000233000203040041                                                                                                                 
22026021601005527080000000090400                           0000000904000233000203040104                                                                                                                 
22026021601003300480000000028000                           0000000280000233001003050072                                                                                                                 
22026021601007085566000000060500                           0000000605000267003800380028                                                                                                                 
22026021601006688493000000028300                           0000000283000267000301290074                                                                                                                 
22026021601007064496000000122000                           0000001220000267000301290076                                                                                                                 
22026021601003837929000000036400                           0000000364000267000301290082                                                                                                                 
22026021601300751708000000005800                           0000000058000267000301290117                                                                                                                 
22026021601003592862000000020900                           0000000209000267000301290204                                                                                                                 
22026021601300264017000000063100                           0000000631000267000301290205                                                                                                                 
22026021601004435160000000035500                           0000000355000267000201320133                                                                                                                 
22026021601004033577000000035900                           0000000359000267000201320200                                                                                                                 
22026021601006084891000000091300                           0000000913000267000201320290                                                                                                                 
22026021601007047137000000020500                           0000000205000267000401330007                                                                                                                 
22026021601005937081000000038800                           0000000388000267000401330018                                                                                                                 
22026021601003585973000000038700                           0000000387000267000401330058                                                                                                                 
22026021601003537933000000016100                           0000000161000267000401330064                                                                                                                 
22026021601007047277000000043800                           0000000438000267000401330194                                                                                                                 
22026021601005242052000000096900                           0000000969000267000601570103                                                                                                                 
22026021601004346813000000029600                           0000000296000267000601570182                                                                                                                 
22026021601006162069000000035000                           0000000350000267000102210045                                                                                                                 
22026021601003269420000000025800                           0000000258000267000102210046                                                                                                                 
22026021601004544896000000007900                           0000000079000267000102210062                                                                                                                 
22026021601004166070000000010500                           0000000105000456000201220020                                                                                                                 
22026021601005587258000000030100                           0000000301000879003800380083                                                                                                                 
22026021601005701701000000007900                           0000000079000879003900390012                                                                                                                 
22026021601004510301000000011800                           0000000118000879000601470178                                                                                                                 
22026021601003961299000000045500                           0000000455000879000401700025                                                                                                                 
22026021601003242666000000692100                           0000006921000879000401700141                                                                                                                 
22026021601003117769000000080100                           0000000801000895000601190102                                                                                                                 
22026021601005265871000000018200                           0000000182000895000501260032                                                                                                                 
22026021601004258794000000007900                           0000000079000895000501260033                                                                                                                 
22026021601004267118000000039300                           0000000393000895000501260052                                                                                                                 
22026021601003535929000000018200                           0000000182000895001202220125                                                                                                                 
22026021601007340581000000045400                           0000000454000895000902350019                                                                                                                 
22026021601004337465000000018200                           0000000182000895000402380002                                                                                                                 
22026021601003983665000000044300                           0000000443000895000402380082                                                                                                                 
22026021601006987002000000037300                           0000000373000996001901450038                                                                                                                 
22026021601005482211000000021100                           0000000211000996001501920125                                                                                                                 
900000006100000000003794700                                                                                                                                                                             
