65500498996     1602202622413687ABO CBZA TDC PAG RAP                    +00000000012100000000036088000000000000000000000006085971              
65500498996     1602202622443597ABONO X CBZA                            +00000000041200000000036500000216769900000000000006147813              
65500498996     1602202623013597ABONO X CBZA                            +00000000020500000000036705000742961100000000000006133458              
65500498996     1602202623373597ABONO X CBZA                            +00000000012900000000036834000046440500000000000007293988              
65500498996     1602202623593597ABONO X CBZA                            +00000000012000000000036954000061431800000000000004141388              
65500498996     1602202600183597ABONO X CBZA                            +00000000060500000000037559000377462300000000000006399810              
65500498996     1602202600413687ABO CBZA TDC                            +00000000030000000000037859000000000000000000000007116940              
65500498996     1602202607263597ABONO X CBZA                            +00000000468400000000042543000671983900000000000003449246              
65500498996     1602202607283687ABO CBZA TDC                            +00000000026200000000042805000000000000000000000004051611              
65500498996     1602202607343597AB PGO RAP SER                          +00000000035700000000043162000427588700000000000006191183              
65500498996     1602202607393597AB PGO RAP SER                          +00000000056800000000043730000783774700000000000300234630              
65500498996     1602202608003597AB PGO RAP SER                          +00000000026100000000043991000235302400000000000301476255              
65500498996     1602202609543597ABONO X CBZA                            +00000000050600000000044497000676020500000000000005537311              
65500498996     1602202610443597ABONO X CBZA                            +00000000020400000000044701000687268600000000000300193299              
65500498996     1602202610503597AB PGO RAP SER                          +00000000023500000000044936000978648400000000000004970786              
65500498996     1602202611033597ABONO X CBZA                            +00000000023000000000045166000941539800000000000004611620              
65500498996     1602202611133597ABONO X CBZA                            +00000000431200000000049478000627135900000000000005967799              
65500498996     1602202611153597ABONO X CBZA                            +00000000204800000000051526000518404000000000000007341951              
65500498996     1602202611303597AB PGO RAP SER                          +00000000018400000000051710000939884900000000000003582483              
65500498996     1602202611303597ABONO X CBZA                            +00000000133100000000053041000380241100000000000004124475              
65500498996     1602202611323687ABO CBZA TDC PAG RAP                    +00000000032400000000053365000000000000000000000004489738              
65500498996     1602202611553597ABONO X CBZA                            +00000000045300000000053818000350559600000000000300719952              
65500498996     1602202612203597ABONO X CBZA                            +00000000067000000000054488000751096200000000000007245681              
65500498996     1602202612233597AB PGO RAP SER                          +00000000162800000000056116000582238200000000000301277232              
65500498996     1602202613363597ABONO X CBZA                            +00000000040100000000056517000342660000000000000300226818              
65500498996     1602202613453597ABONO X CBZA                            +00000000060000000000057117000956533400000000000004316436              
65500498996     1602202613543597ABONO X CBZA                            +00000000040000000000057517000797293800000000000003552270              
65500498996     1602202613553597ABONO X CBZA                            +00000000064400000000058161000155611600000000000003676558              
65500498996     1602202614213597ABONO X CBZA                            +00000000038800000000058549000221548400000000000007214539              
65500498996     1602202614273597ABONO X CBZA                            +00000000032100000000058870000560858300000000000005175039              
65500498996     1602202614443597ABONO X CBZA                            +00000000059000000000059460000388131200000000000003268851              
65500498996     1602202616033597ABONO X CBZA                            +00000000041200000000059872000905060800000000000007036452              
65500498996     1602202616153597ABONO X CBZA                            +00000000127400000000061146000928377500000000000004073896              
65500498996     1602202616413687ABO CBZA TDC                            +00000000063300000000061779000000000000000000000006933022              
65500498996     1602202617443597AB PGO RAP SER                          +00000000026900000000062048000739483200000000000005912779              
65500498996     1602202617493597AB PGO RAP SER                          +00000000054900000000062597000435187100000000000005979356              
65500498996     1602202617543597ABONO X CBZA                            +00000000120000000000063797000482806100000000000004190310              
65500498996     1602202617593597AB PGO RAP SER                          +00000000035700000000064154000920247000000000000007219033              
65500498996     1602202618293597AB PGO RAP SER                          +00000000025500000000064409000750982100000000000005294848              
65500498996     1602202619073597ABONO X CBZA                            +00000000023900000000064648000293995300000000000301210530              
65500498996     1602202620543597ABONO X CBZA                            +00000000037800000000065026000076049700000000000007040256              
65500498996     1602202622213597ABONO X CBZA                            +00000000017900000000065205000610006500000000000004720298              
65500498996     1602202622583597ABONO X CBZA                            +00000000016300000000065368000877485300000000000005089586              
65500498996     1602202623103597ABONO X CBZA                            +00000000011300000000065481000143086900000000000004338901              
65500498996     1602202623153597AB PGO RAP SER                          +00000000048300000000065964000873157100000000000005622618              
65500498996     1602202600323597ABONO X CBZA                            +00000000015000000000066114000616422700000000000301214409              
65500498996     1602202608173597AB PGO RAP SER                          +00000000042900000000066543000369303600000000000005725098              
65500498996     1602202608203597ABONO X CBZA                            +00000000037600000000066919000727635000000000000004375895              
65500498996     1602202608393597AB PGO RAP SER                          +00000000044700000000067366000053927700000000000004356077              
65500498996     1602202608463597ABONO X CBZA                            +00000000032800000000067694000046724400000000000006981815              
65500498996     1602202608573597AB PGO RAP SER                          +00000000072100000000068415000172825300000000000301250353              
65500498996     1602202610463597ABONO X CBZA                            +00000000317200000000071587000968412500000000000006350334              
65500498996     1602202610593597ABONO X CBZA                            +00000000022900000000071816000466636200000000000005587217              
65500498996     1602202611103687ABO CBZA TDC                            +00000000035900000000072175000000000000000000000300300761              
65500498996     1602202611123597ABONO X CBZA                            +00000000007800000000072253000563315300000000000003108909              
65500498996     1602202611393597AB PGO RAP SER                          +00000000013800000000072391000935587200000000000002736528              
65500498996     1602202611483687ABO CBZA TDC                            +00000000073200000000073123000000000000000000000004107231              
65500498996     1602202611523687ABO CBZA TDC                            +00000000038800000000073511000000000000000000000002742260              
65500498996     1602202611563597ABONO X CBZA                            +00000000039100000000073902000405079500000000000005481882              
65500498996     1602202613203597ABONO X CBZA                            +00000000061900000000074521000671795500000000000006990956              
65500498996     1602202615233597ABONO X CBZA                            +00000000039300000000074914000131901100000000000005410071              
65500498996     1602202616033597AB PGO RAP SER                          +00000000021400000000075128000853130000000000000300563178              
65500498996     1602202616203597ABONO X CBZA                            +00000000029200000000075420000222050900000000000006725477              
65500498996     1602202617343597ABONO X CBZA                            +00000000107700000000076497000475530300000000000005230479              
65500498996     1602202618153597ABONO X CBZA                            +00000000125700000000077754000082071200000000000004815296              
65500498996     1602202618233597ABONO X CBZA                            +00000000044300000000078197000938940600000000000006667000              
65500498996     1602202618383597ABONO X CBZA                            +00000000020400000000078401000201106900000000000006931828              
65500498996     1602202619223597ABONO X CBZA                            +00000000168500000000080086000092506700000000000300919347              
65500498996     1602202619363597ABONO X CBZA                            +00000000016400000000080250000375986200000000000006541668              
65500498996     1602202619443597ABONO X CBZA                            +00000000035000000000080600000415032100000000000007207905              
65500498996     1602202619573597ABONO X CBZA                            +00000000112700000000081727000270503900000000000300844669              
65500498996     1602202620003597AB PGO RAP SER                          +00000000047900000000082206000506856600000000000007180995              
65500498996     1602202620123597ABONO X CBZA                            +00000000011800000000082324000964543300000000000004474722              
65500498996     1602202620383597AB PGO RAP SER                          +00000000058300000000082907000203277300000000000005399415              
65500498996     1602202620513597AB PGO RAP SER                          +00000000035000000000083257000845119200000000000005476296              
65500498996     1602202621513597AB PGO RAP SER                          +00000000020000000000083457000589095900000000000004299285              
65500498996     1602202621513687ABO CBZA TDC                            +00000000035900000000083816000000000000000000000004215919              
65500498996     1602202622123597AB PGO RAP SER                          +00000000037300000000084189000762016300000000000007226012              
65500498996     1602202622253597ABONO X CBZA                            +00000000007800000000084267000431897100000000000004798294              
65500498996     1602202622463597AB PGO RAP SER                          +00000000042100000000084688000805887300000000000006354211              
65500498996     1602202622573597AB PGO RAP SER                          +00000000003300000000084721000855805800000000000006854707              
65500498996     1602202623093597ABONO X CBZA                            +00000000013600000000084857000549908800000000000007402043              
65500498996     1602202605193597ABONO X CBZA                            +00000000062500000000085482000118792000000000000006906846              
65500498996     1602202606243597ABONO X CBZA                            +00000000033300000000085815000972439600000000000006605125              
65500498996     1602202605384231DEPOSITO VENTAS DEL DIA                 +000001766349860000018521648608162587AIL.-008162587                    
65500498996     1602202605384231DEPOSITO VENTAS DEL DIA                 +000000999783220000028519480808162587AIL.-008162587                    
65500498996     1602202605384231DEPOSITO VENTAS DEL DIA                 +000001013342020000038652901008162587AIL.-008162587                    
65500498996     1602202605384231DEPOSITO VENTAS DEL DIA                 +000000899878590000047651686908163185AIL.-008163185                    
65500498996     1602202605384231DEPOSITO VENTAS DEL DIA                 +000000392492580000051576612708163185AIL.-008163185                    
65500498996     1602202605384231DEPOSITO VENTAS DEL DIA                 +000000341376210000054990374808163185AIL.-008163185                    
65500498996     1602202607463597ABONO X CBZA                            +00000000009800000005499135480820450000000000000004673778              
65500498996     1602202608283597ABONO X CBZA                            +00000000060500000005499740480029682700000000000005497144              
65500498996     1602202608393597ABONO X CBZA                            +00000000025700000005499997480344882500000000000003997152              
65500498996     1602202609160122DEP COBRANZA SERV DOMICILIADO           +000000176454000000056764514800000000BZON 00647                        
65500498996     1602202609493597ABONO X CBZA                            +00000000046100000005676912480644943600000000000005788286              
65500498996     1602202609493597ABONO X CBZA                            +00000000070100000005677613480733191500000000000005464037              
65500498996     1602202609553597ABONO X CBZA                            +00000000010000000005677713480686326700000000000005547542              
65500498996     1602202609553597ABONO X CBZA                            +00000000022500000005677938480661775100000000000007242571              
65500498996     1602202610193597ABONO X CBZA                            +00000000043200000005678370480185061100000000000004922373              
65500498996     1602202610203597ABONO X CBZA                            +00000000025500000005678625480256493300000000000004389540              
65500498996     1602202610470981AB TRANS ELECT                          +00000000043500000005679060484368B06200000000000006890339                                  
65500498996     1602202610500981AB TRANS ELECT                          +00000000487800000005683938482251B55200000000000003276920                                  
65500498996     1602202610520981AB TRANS ELECT                          +00000003941300000005723351483924B93700000000000003720893                                  
65500498996     1602202610583597ABONO X CBZA                            +00000000011400000005723465480598917500000000000005406509              
65500498996     1602202611043597ABONO X CBZA                            +00000000054000000005724005480701657200000000000007039233              
65500498996     1602202611050981AB TRANS ELECT                          +00000000086600000005724871480546K46500000000000003279981                                   
65500498996     1602202611070890ABONO X CBZA                            +00000000828300000005733154480000000000000000000004574364              
65500498996     1602202611310327DEP EN EFECTIV                          +00000006398900000005797143480327626200000000000003559838              
65500498996     1602202611440981AB TRANS ELECT                          +00000000150000000005798643480320Q60800000000000005318050                                   
65500498996     1602202611440981AB TRANS ELECT                          +00000000625600000005804899481644297500000000000005522859                                   
65500498996     1602202611483597AB PGO RAP SER                          +00000000092800000005805827480752822400000000000005365689              
65500498996     1602202611513910DEP EN EFECTIV                          +00000000068100000005806508480091046500000000000007417421              
65500498996     1602202612010981AB TRANS ELECT                          +00000001255100000005819059484375N01200000000000006133680                                  
65500498996     1602202612153597ABONO X CBZA                            +00000000020500000005819264480602539100000000000004800793              
65500498996     1602202612233597ABONO X CBZA                            +00000000016500000005819429480358135800000000000005128475              
65500498996     1602202612233597AB PGO RAP SER                          +00000000051800000005819947480983792100000000000301325890              
65500498996     1602202612273687ABO CBZA TDC                            +00000000009000000005820037480000000000000000000007228257              
65500498996     1602202612363597ABONO X CBZA                            +00000000050300000005820540480645784900000000000300141512              
65500498996     1602202613010981AB TRANS ELECT                          +00000005440900000005874949482143816300000000000005149521                                  
65500498996     1602202613090981AB TRANS ELECT                          +00000001683400000005891783483846Z40700000000000005148523                                   
65500498996     1602202613383687ABO CBZA TDC                            +00000000018600000005891969480000000000000000000004058988              
65500498996     1602202613520890ABONO X CBZA                            +00000000034800000005892317480000000000000000000007324783              
65500498996     1602202614033687ABO CBZA TDC                            +00000000053800000005892855480000000000000000000004676888              
65500498996     1602202614160981AB TRANS ELECT                          +00000000112600000005893981481111B76700000000000006854236                                   
65500498996     1602202614160981AB TRANS ELECT                          +00000000046300000005894444481111B76800000000000006346894                                   
65500498996     1602202614554272DEP EN EFECTIV                          +00000000048600000005894930480272909400000000000301511382              
65500498996     1602202614573597ABONO X CBZA                            +00000000015900000005895089480972899800000000000003158359              
65500498996     1602202615213597ABONO X CBZA                            +00000000063500000005895724480021506000000000000002994366              
65500498996     1602202615340981AB TRANS ELECT                          +00000001210900000005907833482713F46000000000000002870137                                   
65500498996     1602202615343597ABONO X CBZA                            +00000001684300000005924676480987569200000000000300403128              
65500498996     1602202615353597ABONO X CBZA                            +00000000051700000005925193480407266800000000000005170352              
65500498996     1602202616003597ABONO X CBZA                            +00000000026200000005925455480044791300000000000003647070              
65500498996     1602202616163597ABONO X CBZA                            +00000000016000000005925615480774419000000000000007085434              
65500498996     1602202616173597ABONO X CBZA                            +00000000009800000005925713480553623200000000000006888317              
65500498996     1602202616280981AB TRANS ELECT                          +00000000766000000005933373484814551600000000000003557816                                   
65500498996     1602202616373597ABONO X CBZA                            +00000000032100000005933694480772284000000000000300539095              
65500498996     1602202616453687ABO CBZA TDC                            +00000000018200000005933876480000000000000000000004687034              
65500498996     1602202616523597ABONO X CBZA                            +00000000017500000005934051480258295700000000000003224987              
65500498996     1602202617063597ABONO X CBZA                            +00000000034600000005934397480060243800000000000007056088              
65500498996     1602202617090890ABONO X CBZA                            +00000000037400000005934771480000000000000000000004248688              
65500498996     1602202617200981AB TRANS ELECT                          +00000000370100000005938472484780Q22600000000000004006607                                   
65500498996     1602202617253597ABONO X CBZA                            +00000000037400000005938846480011230800000000000005738505              
65500498996     1602202617353597ABONO X CBZA                            +00000000019800000005939044480918450300000000000006000087              
65500498996     1602202617363687ABO CBZA TDC                            +00000000015900000005939203480000000000000000000004531661              
65500498996     1602202617363597ABONO X CBZA                            +00000000040700000005939610480651004000000000000006658819              
65500498996     1602202617373597ABONO X CBZA                            +00000000008200000005939692480646130100000000000006414825              
65500498996     1602202617410981AB TRANS ELECT                          +00000000413200000005943824483400E37700000000000004621157                                   
65500498996     1602202617450890ABONO X CBZA                            +00000000033200000005944156480000000000000000000006289680              
65500498996     1602202618063597ABONO X CBZA                            +00000000052500000005944681480795962400000000000006456990              
65500498996     1602202618153597ABONO X CBZA                            +00000000047500000005945156480705451700000000000300561255              
65500498996     1602202618273597ABONO X CBZA                            +00000000027100000005945427480822622500000000000006707368              
65500498996     1602202618453687ABO CBZA TDC                            +00000000032100000005945748480000000000000000000007035108              
65500498996     1602202618453597ABONO X CBZA                            +00000000077900000005946527480208605300000000000005902754              
65500498996     1602202619060981AB TRANS ELECT                          +00000002674000000005973267481758P18700000000000006790927                                   
65500498996     1602202619403597AB PGO RAP SER                          +00000000007700000005973344480681476500000000000005043047              
65500498996     1602202619490890ABONO X CBZA                            +00000000058900000005973933480000000000000000000005488200              
65500498996     1602202619583597ABONO X CBZA                            +00000000007200000005974005480889152900000000000300481942              
65500498996     1602202620003597ABONO X CBZA                            +00000000023400000005974239480853609500000000000004277620              
65500498996     1602202620203597ABONO X CBZA                            +00000000014500000005974384480304703400000000000007313034              
65500498996     1602202620293597ABONO X CBZA                            +00000000020400000005974588480694035900000000000006229579              
65500498996     1602202620433597AB PGO RAP SER                          +00000000035500000005974943480889106800000000000301590808              
65500498996     1602202620583597ABONO X CBZA                            +00000000029100000005975234480452131800000000000004726972              
65500498996     1602202620593597ABONO X CBZA                            +00000000013900000005975373480486910600000000000002920262              
65500498996     1602202621013597ABONO X CBZA                            +00000000046500000005975838480353770200000000000003249620              
65500498996     1602202621073687ABO CBZA TDC                            +00000000028000000005976118480000000000000000000006113286              
65500498996     1602202621133597ABONO X CBZA                            +00000000048500000005976603480637134200000000000007105471              
65500498996     1602202621173597ABONO X CBZA                            +00000000017900000005976782480870830000000000000005688536              
65500498996     1602202621363597ABONO X CBZA                            +00000000032200000005977104480818299900000000000300808557              
65500498996     1602202621373597ABONO X CBZA                            +00000000065800000005977762480696513200000000000007224090              
65500498996     1602202621403597ABONO X CBZA                            +00000000037300000005978135480044914900000000000004927679              
 