65500498996     1602202622413687AB COBRANZA TDC PAGOS RAPIDOS           +00000000012100000000036088000000000001006085971000000012100                                                                                                                                                                                                                                                                                                                               AB COBRANZA TDC PAGOS RAPIDOS                                                                                                     
65500498996     1602202622443597ABONO POR COBRANZA                      +00000000041200000000036500000216769901006147813000000041200                                                                                                                                                                                                                                                                                                                               ABONO POR COBRANZA                                                                                                                
65500498996     1602202623013597ABONO POR COBRANZA                      +00000000020500000000036705000742961101006133458000000020500                                                                                                                                                                                                                                                                                                                               ABONO POR COBRANZA                                                                                                                
65500498996     1602202623373597ABONO POR COBRANZA                      +00000000012900000000036834000046440501007293988000000012900                                                                                                                                                                                                                                                                                                                               ABONO POR COBRANZA                                                                                                                
65500498996     1602202623593597ABONO POR COBRANZA                      +00000000012000000000036954000061431801004141388000000012000                                                                                                                                                                                                                                                                                                                               ABONO POR COBRANZA                                                                                                                
65500498996     1602202600183597ABONO POR COBRANZA                      +00000000060500000000037559000377462301006399810000000060500                                                                                                                                                                                                                                                                                                                               ABONO POR COBRANZA                                                                                                                
65500498996     1602202600413687ABONO POR COBRANZA TARJ CRED            +00000000030000000000037859000000000001007116940000000021200                                                                                                                                                                                                                                                                                                                               ABONO POR COBRANZA TARJ CRED                                                                                                      
65500498996     1602202607263597ABONO POR COBRANZA                      +00000000468400000000042543000671983901003449246000000468400                                                                                                                                                                                                                                                                                                                               ABONO POR COBRANZA                                                                                                                
65500498996     1602202607283687ABONO POR COBRANZA TARJ CRED            +00000000026200000000042805000000000001004051611000000026200                                                                                                                                                                                                                                                                                                                               ABONO POR COBRANZA TARJ CRED                                                                                                      
65500498996     1602202607343597ABONO PAGOS RAPIDOS SERVICIOS           +00000000035700000000043162000427588701006191183000000117700                                                                                                                                                                                                                                                                                                                               ABONO PAGOS RAPIDOS SERVICIOS                                                                                                     
65500498996     1602202607393597ABONO PAGOS RAPIDOS SERVICIOS           +00000000056800000000043730000783774701300234630000000056800                                                                                                                                                                                                                                                                                                                               ABONO PAGOS RAPIDOS SERVICIOS                                                                                                     
65500498996     1602202608003597ABONO PAGOS RAPIDOS SERVICIOS           +00000000026100000000043991000235302401301476255000000026100                                                                                                                                                                                                                                                                                                                               ABONO PAGOS RAPIDOS SERVICIOS                                                                                                     
65500498996     1602202609543597ABONO POR COBRANZA                      +00000000050600000000044497000676020501005537311000000050600                                                                                                                                                                                                                                                                                                                               ABONO POR COBRANZA                                                                                                                
65500498996     1602202610443597ABONO POR COBRANZA                      +00000000020400000000044701000687268601300193299000000020400                                                                                                                                                                                                                                                                                                                               ABONO POR COBRANZA                                                                                                                
65500498996     1602202610503597ABONO PAGOS RAPIDOS SERVICIOS           +00000000023500000000044936000978648401004970786000000023500                                                                                                                                                                                                                                                                                                                               ABONO PAGOS RAPIDOS SERVICIOS                                                                                                     
65500498996     1602202611033597ABONO POR COBRANZA                      +00000000023000000000045166000941539801004611620000000023000                                                                                                                                                                                                                                                                                                                               ABONO POR COBRANZA                                                                                                                
65500498996     1602202611133597ABONO POR COBRANZA                      +00000000431200000000049478000627135901005967799000000431200                                                                                                                                                                                                                                                                                                                               ABONO POR COBRANZA                                                                                                                
65500498996     1602202611153597ABONO POR COBRANZA                      +00000000204800000000051526000518404001007341951000000204800                                                                                                                                                                                                                                                                                                                               ABONO POR COBRANZA                                                                                                                
65500498996     1602202611303597ABONO PAGOS RAPIDOS SERVICIOS           +00000000018400000000051710000939884901003582483000000018400                                                                                                                                                                                                                                                                                                                               ABONO PAGOS RAPIDOS SERVICIOS                                                                                                     
65500498996     1602202611303597ABONO POR COBRANZA                      +00000000133100000000053041000380241101004124475000000133100                                                                                                                                                                                                                                                                                                                               ABONO POR COBRANZA                                                                                                                
65500498996     1602202611323687AB COBRANZA TDC PAGOS RAPIDOS           +00000000032400000000053365000000000001004489738000000032400                                                                                                                                                                                                                                                                                                                               AB COBRANZA TDC PAGOS RAPIDOS                                                                                                     
65500498996     1602202611553597ABONO POR COBRANZA                      +00000000045300000000053818000350559601300719952000000045300                                                                                                                                                                                                                                                                                                                               ABONO POR COBRANZA                                                                                                                
65500498996     1602202612203597ABONO POR COBRANZA                      +00000000067000000000054488000751096201007245681000000067000                                                                                                                                                                                                                                                                                                                               ABONO POR COBRANZA                                                                                                                
65500498996     1602202612233597ABONO PAGOS RAPIDOS SERVICIOS           +00000000162800000000056116000582238201301277232000000162800                                                                                                                                                                                                                                                                                                                               ABONO PAGOS RAPIDOS SERVICIOS                                                                                                     
65500498996     1602202613363597ABONO POR COBRANZA                      +00000000040100000000056517000342660001300226818000000040100                                                                                                                                                                                                                                                                                                                               ABONO POR COBRANZA                                                                                                                
65500498996     1602202613453597ABONO POR COBRANZA                      +00000000060000000000057117000956533401004316436000000090400                                                                                                                                                                                                                                                                                                                               ABONO POR COBRANZA                                                                                                                
65500498996     1602202613543597ABONO POR COBRANZA                      +00000000040000000000057517000797293801003552270000000040000                                                                                                                                                                                                                                                                                                                               ABONO POR COBRANZA                                                                                                                
65500498996     1602202613553597ABONO POR COBRANZA                      +00000000064400000000058161000155611601003676558000000064400                                                                                                                                                                                                                                                                                                                               ABONO POR COBRANZA                                                                                                                
65500498996     1602202614213597ABONO POR COBRANZA                      +00000000038800000000058549000221548401007214539000000038800                                                                                                                                                                                                                                                                                                                               ABONO POR COBRANZA                                                                                                                
65500498996     1602202614273597ABONO POR COBRANZA                      +00000000032100000000058870000560858301005175039000000032100                                                                                                                                                                                                                                                                                                                               ABONO POR COBRANZA                                                                                                                
65500498996     1602202614443597ABONO POR COBRANZA                      +00000000059000000000059460000388131201003268851000000116900                                                                                                                                                                                                                                                                                                                               ABONO POR COBRANZA                                                                                                                
65500498996     1602202616033597ABONO POR COBRANZA                      +00000000041200000000059872000905060801007036452000000041200                                                                                                                                                                                                                                                                                                                               ABONO POR COBRANZA                                                                                                                
65500498996     1602202616153597ABONO POR COBRANZA                      +00000000127400000000061146000928377501004073896000000127400                                                                                                                                                                                                                                                                                                                               ABONO POR COBRANZA                                                                                                                
65500498996     1602202616413687ABONO POR COBRANZA TARJ CRED            +00000000063300000000061779000000000001006933022000000063300                                                                                                                                                                                                                                                                                                                               ABONO POR COBRANZA TARJ CRED                                                                                                      
65500498996     1602202617443597ABONO PAGOS RAPIDOS SERVICIOS           +00000000026900000000062048000739483201005912779000000026900                                                                                                                                                                                                                                                                                                                               ABONO PAGOS RAPIDOS SERVICIOS                                                                                                     
65500498996     1602202617493597ABONO PAGOS RAPIDOS SERVICIOS           +00000000054900000000062597000435187101005979356000000054900                                                                                                                                                                                                                                                                                                                               ABONO PAGOS RAPIDOS SERVICIOS                                                                                                     
65500498996     1602202617543597ABONO POR COBRANZA                      +00000000120000000000063797000482806101004190310000000653300                                                                                                                                                                                                                                                                                                                               ABONO POR COBRANZA                                                                                                                
65500498996     1602202617593597ABONO PAGOS RAPIDOS SERVICIOS           +00000000035700000000064154000920247001007219033000000035700                                                                                                                                                                                                                                                                                                                               ABONO PAGOS RAPIDOS SERVICIOS                                                                                                     
65500498996     1602202618293597ABONO PAGOS RAPIDOS SERVICIOS           +00000000025500000000064409000750982101005294848000000043900                                                                                                                                                                                                                                                                                                                               ABONO PAGOS RAPIDOS SERVICIOS                                                                                                     
65500498996     1602202619073597ABONO POR COBRANZA                      +00000000023900000000064648000293995301301210530000000023900                                                                                                                                                                                                                                                                                                                               ABONO POR COBRANZA                                                                                                                
65500498996     1602202620543597ABONO POR COBRANZA                      +00000000037800000000065026000076049701007040256000000037800                                                                                                                                                                                                                                                                                                                               ABONO POR COBRANZA                                                                                                                
65500498996     1602202622213597ABONO POR COBRANZA                      +00000000017900000000065205000610006501004720298000000017900                                                                                                                                                                                                                                                                                                                               ABONO POR COBRANZA                                                                                                                
65500498996     1602202622583597ABONO POR COBRANZA                      +00000000016300000000065368000877485301005089586000000016300                                                                                                                                                                                                                                                                                                                               ABONO POR COBRANZA                                                                                                                
65500498996     1602202623103597ABONO POR COBRANZA                      +00000000011300000000065481000143086901004338901000000011300                                                                                                                                                                                                                                                                                                                               ABONO POR COBRANZA                                                                                                                
65500498996     1602202623153597ABONO PAGOS RAPIDOS SERVICIOS           +00000000048300000000065964000873157101005622618000000048300                                                                                                                                                                                                                                                                                                                               ABONO PAGOS RAPIDOS SERVICIOS                                                                                                     
65500498996     1602202600323597ABONO POR COBRANZA                      +00000000015000000000066114000616422701301214409000000015000                                                                                                                                                                                                                                                                                                                               ABONO POR COBRANZA                                                                                                                
65500498996     1602202608173597ABONO PAGOS RAPIDOS SERVICIOS           +00000000042900000000066543000369303601005725098000000089300                                                                                                                                                                                                                                                                                                                               ABONO PAGOS RAPIDOS SERVICIOS                                                                                                     
65500498996     1602202608203597ABONO POR COBRANZA                      +00000000037600000000066919000727635001004375895000000037600                                                                                                                                                                                                                                                                                                                               ABONO POR COBRANZA                                                                                                                
65500498996     1602202608393597ABONO PAGOS RAPIDOS SERVICIOS           +00000000044700000000067366000053927701004356077000000044700                                                                                                                                                                                                                                                                                                                               ABONO PAGOS RAPIDOS SERVICIOS                                                                                                     
65500498996     1602202608463597ABONO POR COBRANZA                      +00000000032800000000067694000046724401006981815000000032800                                                                                                                                                                                                                                                                                                                               ABONO POR COBRANZA                                                                                                                
65500498996     1602202608573597ABONO PAGOS RAPIDOS SERVICIOS           +00000000072100000000068415000172825301301250353000000072100                                                                                                                                                                                                                                                                                                                               ABONO PAGOS RAPIDOS SERVICIOS                                                                                                     
65500498996     1602202610463597ABONO POR COBRANZA                      +00000000317200000000071587000968412501006350334000000718100                                                                                                                                                                                                                                                                                                                               ABONO POR COBRANZA                                                                                                                
65500498996     1602202610593597ABONO POR COBRANZA                      +0000000002290000000007181600046663620100558721700000002290                                                                                                                                                                                                                                                                                                                                ABONO POR COBRANZA                                                                                                                
65500498996     1602202611103687ABONO POR COBRANZA TARJ CRED            +00000000035900000000072175000000000001300300761000000035900                                                                                                                                                                                                                                                                                                                               ABONO POR COBRANZA TARJ CRED                                                                                                      
65500498996     1602202611123597ABONO POR COBRANZA                      +00000000007800000000072253000563315301003108909000000007800                                                                                                                                                                                                                                                                                                                               ABONO POR COBRANZA                                                                                                                
65500498996     1602202611393597ABONO PAGOS RAPIDOS SERVICIOS           +00000000013800000000072391000935587201002736528000000012800                                                                                                                                                                                                                                                                                                                               ABONO PAGOS RAPIDOS SERVICIOS                                                                                                     
65500498996     1602202611483687ABONO POR COBRANZA TARJ CRED            +00000000073200000000073123000000000001004107231000000073200                                                                                                                                                                                                                                                                                                                               ABONO POR COBRANZA TARJ CRED                                                                                                      
65500498996     1602202611523687ABONO POR COBRANZA TARJ CRED            +00000000038800000000073511000000000001002742260000000038800                                                                                                                                                                                                                                                                                                                               ABONO POR COBRANZA TARJ CRED                                                                                                      
65500498996     1602202611563597ABONO POR COBRANZA                      +00000000039100000000073902000405079501005481882000000039100                                                                                                                                                                                                                                                                                                                               ABONO POR COBRANZA                                                                                                                
65500498996     1602202613203597ABONO POR COBRANZA                      +00000000061900000000074521000671795501006990956000000061900                                                                                                                                                                                                                                                                                                                               ABONO POR COBRANZA                                                                                                                
65500498996     1602202615233597ABONO POR COBRANZA                      +00000000039300000000074914000131901101005410071000000039300                                                                                                                                                                                                                                                                                                                               ABONO POR COBRANZA                                                                                                                
65500498996     1602202616033597ABONO PAGOS RAPIDOS SERVICIOS           +00000000021400000000075128000853133201300563178000000713200                                                                                                                                                                                                                                                                                                                               ABONO PAGOS RAPIDOS SERVICIOS                                                                                                     
65500498996     1602202616203597ABONO POR COBRANZA                      +00000000029200000000075420000222050901006725477000000029200                                                                                                                                                                                                                                                                                                                               ABONO POR COBRANZA                                                                                                                
65500498996     1602202617343597ABONO POR COBRANZA                      +00000000107700000000076497000475530301005230479000000107700                                                                                                                                                                                                                                                                                                                               ABONO POR COBRANZA                                                                                                                
65500498996     1602202618153597ABONO POR COBRANZA                      +00000000125700000000077754000082071201004815296000000125700                                                                                                                                                                                                                                                                                                                               ABONO POR COBRANZA                                                                                                                
65500498996     1602202618233597ABONO POR COBRANZA                      +00000000044300000000078197000938940601006667000000000044300                                                                                                                                                                                                                                                                                                                               ABONO POR COBRANZA                                                                                                                
65500498996     1602202618383597ABONO POR COBRANZA                      +00000000020400000000078401000201106901006931828000000020400                                                                                                                                                                                                                                                                                                                               ABONO POR COBRANZA                                                                                                                
65500498996     1602202619223597ABONO POR COBRANZA                      +00000000168500000000080086000092506701300919347000000168500                                                                                                                                                                                                                                                                                                                               ABONO POR COBRANZA                                                                                                                
65500498996     1602202619363597ABONO POR COBRANZA                      +00000000016400000000080250000375986201006541668000000016400                                                                                                                                                                                                                                                                                                                               ABONO POR COBRANZA                                                                                                                
65500498996     1602202619443597ABONO POR COBRANZA                      +00000000035000000000080600000415032101007207905000000035000                                                                                                                                                                                                                                                                                                                               ABONO POR COBRANZA                                                                                                                
65500498996     1602202619573597ABONO POR COBRANZA                      +00000000112700000000081727000270503901300844669000000112700                                                                                                                                                                                                                                                                                                                               ABONO POR COBRANZA                                                                                                                
65500498996     1602202620003597ABONO PAGOS RAPIDOS SERVICIOS           +00000000047900000000082206000506856601007180995000000047900                                                                                                                                                                                                                                                                                                                               ABONO PAGOS RAPIDOS SERVICIOS                                                                                                     
65500498996     1602202620123597ABONO POR COBRANZA                      +00000000011800000000082324000964543301004474722000000011800                                                                                                                                                                                                                                                                                                                               ABONO POR COBRANZA                                                                                                                
65500498996     1602202620383597ABONO PAGOS RAPIDOS SERVICIOS           +00000000058300000000082907000203277301005399415000000058300                                                                                                                                                                                                                                                                                                                               ABONO PAGOS RAPIDOS SERVICIOS                                                                                                     
65500498996     1602202620513597ABONO PAGOS RAPIDOS SERVICIOS           +00000000035000000000083257000845119201005476296000000035000                                                                                                                                                                                                                                                                                                                               ABONO PAGOS RAPIDOS SERVICIOS                                                                                                     
65500498996     1602202621513597ABONO PAGOS RAPIDOS SERVICIOS           +00000000020000000000083457000589095901004299285000000285430                                                                                                                                                                                                                                                                                                                               ABONO PAGOS RAPIDOS SERVICIOS                                                                                                     
65500498996     1602202621513687ABONO POR COBRANZA TARJ CRED            +00000000035900000000083816000000000001004215919000000035900                                                                                                                                                                                                                                                                                                                               ABONO POR COBRANZA TARJ CRED                                                                                                      
65500498996     1602202622123597ABONO PAGOS RAPIDOS SERVICIOS           +00000000037300000000084189000762016301007226012000000037300                                                                                                                                                                                                                                                                                                                               ABONO PAGOS RAPIDOS SERVICIOS                                                                                                     
65500498996     1602202622253597ABONO POR COBRANZA                      +00000000007800000000084267000431897101004798294000000007800                                                                                                                                                                                                                                                                                                                               ABONO POR COBRANZA                                                                                                                
65500498996     1602202622463597ABONO PAGOS RAPIDOS SERVICIOS           +00000000042100000000084688000805887301006354211000000042100                                                                                                                                                                                                                                                                                                                               ABONO PAGOS RAPIDOS SERVICIOS                                                                                                     
65500498996     1602202622573597ABONO PAGOS RAPIDOS SERVICIOS           +00000000003300000000084721000855805801006854707000001037600                                                                                                                                                                                                                                                                                                                               ABONO PAGOS RAPIDOS SERVICIOS                                                                                                     
65500498996     1602202623093597ABONO POR COBRANZA                      +00000000013600000000084857000549908801007402043000000013600                                                                                                                                                                                                                                                                                                                               ABONO POR COBRANZA                                                                                                                
65500498996     1602202605193597ABONO POR COBRANZA                      +00000000062500000000085482000118792001006906846000000062500                                                                                                                                                                                                                                                                                                                               ABONO POR COBRANZA                                                                                                                
65500498996     1602202606243597ABONO POR COBRANZA                      +00000000033300000000085815000972439601006605125000000067400                                                                                                                                                                                                                                                                                                                               ABONO POR COBRANZA                                                                                                                
65500498996     1602202605384231DEPOSITO VENTAS DEL DIA                 +000001766349860000018521648608162587AFIL.-008162587                                                                                                                                                                                                                                                                                                                                       DEPOSITO VENTAS DEL DIA                                                                                                           
65500498996     1602202605384231DEPOSITO VENTAS DEL DIA                 +000000999783220000028519480808162587AFIL.-008162587                                                                                                                                                                                                                                                                                                                                       DEPOSITO VENTAS DEL DIA                                                                                                           
65500498996     1602202605384231DEPOSITO VENTAS DEL DIA                 +000001013342020000038652901008162587AFIL.-008162587                                                                                                                                                                                                                                                                                                                                       DEPOSITO VENTAS DEL DIA                                                                                                           
65500498996     1602202605384231DEPOSITO VENTAS DEL DIA                 +000000899878590000047651686908163185AFIL.-008163185                                                                                                                                                                                                                                                                                                                                       DEPOSITO VENTAS DEL DIA                                                                                                           
65500498996     1602202605384231DEPOSITO VENTAS DEL DIA                 +000000392492580000051576612708163185AFIL.-008163185                                                                                                                                                                                                                                                                                                                                       DEPOSITO VENTAS DEL DIA                                                                                                           
65500498996     1602202605384231DEPOSITO VENTAS DEL DIA                 +000000341376210000054990374808163185AFIL.-008163185                                                                                                                                                                                                                                                                                                                                       DEPOSITO VENTAS DEL DIA                                                                                                           
65500498996     1602202607463597ABONO POR COBRANZA                      +00000000009800000005499135480820450001004673778000000009800                                                                                                                                                                                                                                                                                                                               ABONO POR COBRANZA                                                                                                                
65500498996     1602202608283597ABONO POR COBRANZA                      +00000000060500000005499740480029682701005497144000000060500                                                                                                                                                                                                                                                                                                                               ABONO POR COBRANZA                                                                                                                
65500498996     1602202608393597ABONO POR COBRANZA                      +00000000025700000005499997480344882501003997152000000025700                                                                                                                                                                                                                                                                                                                               ABONO POR COBRANZA                                                                                                                
65500498996     1602202609160122DEP COBRANZA SERV DOMICILIADO           +000000176454000000056764514800000000BUZON 00647                                                                                                                                                                                                                                                                                                                                           DEP COBRANZA SERV DOMICILIADO                                                                                                     
65500498996     1602202609493597ABONO POR COBRANZA                      +00000000046100000005676912480644943601005788286000000046100                                                                                                                                                                                                                                                                                                                               ABONO POR COBRANZA                                                                                                                
65500498996     1602202609493597ABONO POR COBRANZA                      +00000000070100000005677613480733191501005464037000000211600                                                                                                                                                                                                                                                                                                                               ABONO POR COBRANZA                                                                                                                
65500498996     1602202609553597ABONO POR COBRANZA                      +00000000010000000005677713480686326701005547542000000010000                                                                                                                                                                                                                                                                                                                               ABONO POR COBRANZA                                                                                                                
65500498996     1602202609553597ABONO POR COBRANZA                      +00000000022500000005677938480661775101007242571000000022500                                                                                                                                                                                                                                                                                                                               ABONO POR COBRANZA                                                                                                                
65500498996     1602202610193597ABONO POR COBRANZA                      +00000000043200000005678370480185061101004922373000000043200                                                                                                                                                                                                                                                                                                                               ABONO POR COBRANZA                                                                                                                
65500498996     1602202610203597ABONO POR COBRANZA                      +00000000025500000005678625480256493301004389540000000025500                                                                                                                                                                                                                                                                                                                               ABONO POR COBRANZA                                                                                                                
65500498996     1602202610470981ABONO TRANSFERENCIA ENLACE              +00000000043500000005679060484368B062000006890339                                                                                                                                                                                  01468065504492934680INSTITUTO PLANCARTE DE QUERETARO A C                                                                                           CEA800313C95                                      ABONO TRANSFERENCIA ENLACE                                                                                                        
65500498996     1602202610500981ABONO TRANSFERENCIA ENLACE              +00000000487800000005683938482251B552000003276920                                                                                                                                                                                  01468065504492934680INSTITUTO PLANCARTE DE QUERETARO A C                                                                                           CEA800313C95                                      ABONO TRANSFERENCIA ENLACE                                                                                                        
65500498996     1602202610520981ABONO TRANSFERENCIA ENLACE              +00000003941300000005723351483924B937000003720893                                                                                                                                                                                  01468065504492934680INSTITUTO PLANCARTE DE QUERETARO A C                                                                                           CEA800313C95                                      ABONO TRANSFERENCIA ENLACE                                                                                                        
65500498996     1602202610583597ABONO POR COBRANZA                      +00000000011400000005723465480598917501005406509000000011400                                                                                                                                                                                                                                                                                                                               ABONO POR COBRANZA                                                                                                                
65500498996     1602202611043597ABONO POR COBRANZA                      +00000000054000000005724005480701657201007039233000000054000                                                                                                                                                                                                                                                                                                                               ABONO POR COBRANZA                                                                                                                
65500498996     1602202611050981ABONO TRANSFERENCIA ENLACE              +00000000086600000005724871480546K46500003279981                                                                                                                                                                                   01468065507497799680SURTIDORA DE REFACCIONES AUTOMOTRICES SDE RL DE CV                                                                             CEA800313C95                                      ABONO TRANSFERENCIA ENLACE                                                                                                        
65500498996     1602202611070890ABONO POR COBRANZA                      +00000000828300000005733154480000000001004574364000000828300                                                                                                                                                                                                                                                                                                                               ABONO POR COBRANZA                                                                                                                
65500498996     1602202611310327DEPOSITO EN EFECTIVO                    +00000006398900000005797143480327626201003559838000006398900                                                                                                                                                                                                                                                                                                                               DEPOSITO EN EFECTIVO                                                                                                              
65500498996     1602202611440981ABONO TRANSFERENCIA ENLACE              +00000000150000000005798643480320Q60801005318050000000150000                                                                                                                                                                       01473065510448495730SALUD DIGNA AC                                                                                                                 CEA800313C95                                      ABONO TRANSFERENCIA ENLACE                                                                                                        
65500498996     1602202611440981ABONO TRANSFERENCIA ENLACE              +00000000625600000005804899481644297501005522859000000625600                                                                                                                                                                       01468065503297592680AUTOEDUCACION SC                                                                                                               CEA800313C95                                      ABONO TRANSFERENCIA ENLACE                                                                                                        
65500498996     1602202611483597ABONO PAGOS RAPIDOS SERVICIOS           +00000000092800000005805827480752822401005365689000000092800                                                                                                                                                                                                                                                                                                                               ABONO PAGOS RAPIDOS SERVICIOS                                                                                                     
65500498996     1602202611513910DEPOSITO EN EFECTIVO                    +00000000068100000005806508480091046501007417421000000068100                                                                                                                                                                                                                                                                                                                               DEPOSITO EN EFECTIVO                                                                                                              
65500498996     1602202612010981ABONO TRANSFERENCIA ENLACE              +00000001255100000005819059484375N012000006133680                                                                                                                                                                                  01468065503367616680COLEGIO FINLANDES DE QUERETARO SC                                                                                              CEA800313C95                                      ABONO TRANSFERENCIA ENLACE                                                                                                        
65500498996     1602202612153597ABONO POR COBRANZA                      +00000000020500000005819264480602539101004800793000000020500                                                                                                                                                                                                                                                                                                                               ABONO POR COBRANZA                                                                                                                
65500498996     1602202612233597ABONO POR COBRANZA                      +00000000016500000005819429480358135801005128475000000016500                                                                                                                                                                                                                                                                                                                               ABONO POR COBRANZA                                                                                                                
65500498996     1602202612233597ABONO PAGOS RAPIDOS SERVICIOS           +00000000051800000005819947480983792101301325890000000051800                                                                                                                                                                                                                                                                                                                               ABONO PAGOS RAPIDOS SERVICIOS                                                                                                     
65500498996     1602202612273687ABONO POR COBRANZA TARJ CRED            +00000000009000000005820037480000000001007228257000000009000                                                                                                                                                                                                                                                                                                                               ABONO POR COBRANZA TARJ CRED                                                                                                      
65500498996     1602202612363597ABONO POR COBRANZA                      +00000000050300000005820540480645784901300141512000000050300                                                                                                                                                                                                                                                                                                                               ABONO POR COBRANZA                                                                                                                
65500498996     1602202613010981ABONO TRANSFERENCIA ENLACE              +000000054409000000058749494821438163000005149521                                                                                                                                                                                  01468065502651638680PRODUCTOS LACTEOS LA QUINTA SA DE CV                                                                                           CEA800313C95                                      ABONO TRANSFERENCIA ENLACE                                                                                                        
65500498996     1602202613090981ABONO TRANSFERENCIA ENLACE              +00000001683400000005891783483846Z40701005148523000001683400                                                                                                                                                                       01468065506073431680ASOCIACION DE CONDOMINOS JUPITER QUERETARO AC                                                                                  CEA800313C95                                      ABONO TRANSFERENCIA ENLACE                                                                                                        
65500498996     1602202613383687ABONO POR COBRANZA TARJ CRED            +00000000018600000005891969480000000001004058988000000018600                                                                                                                                                                                                                                                                                                                               ABONO POR COBRANZA TARJ CRED                                                                                                      
65500498996     1602202613520890ABONO POR COBRANZA                      +00000000034800000005892317480000000001007324783000000034800                                                                                                                                                                                                                                                                                                                               ABONO POR COBRANZA                                                                                                                
65500498996     1602202614033687ABONO POR COBRANZA TARJ CRED            +00000000053800000005892855480000000001004676888000000053800                                                                                                                                                                                                                                                                                                                               ABONO POR COBRANZA TARJ CRED                                                                                                      
65500498996     1602202614160981ABONO TRANSFERENCIA ENLACE              +00000000112600000005893981481111B76700006854236                                                                                                                                                                                   01432065510181303320TELEFONIA POR CABLE SA DE CV                                                                                                   CEA800313C95                                      ABONO TRANSFERENCIA ENLACE                                                                                                        
65500498996     1602202614160981ABONO TRANSFERENCIA ENLACE              +00000000046300000005894444481111B76800006346894                                                                                                                                                                                   01432065510181303320TELEFONIA POR CABLE SA DE CV                                                                                                   CEA800313C95                                      ABONO TRANSFERENCIA ENLACE                                                                                                        
65500498996     1602202614554272DEPOSITO EN EFECTIVO                    +00000000048600000005894930480272909401301511382000000048600                                                                                                                                                                                                                                                                                                                               DEPOSITO EN EFECTIVO                                                                                                              
65500498996     1602202614573597ABONO POR COBRANZA                      +00000000015900000005895089480972899801003158359000000015900                                                                                                                                                                                                                                                                                                                               ABONO POR COBRANZA                                                                                                                
65500498996     1602202615213597ABONO POR COBRANZA                      +00000000063500000005895724480021506001002994366000000063500                                                                                                                                                                                                                                                                                                                               ABONO POR COBRANZA                                                                                                                
65500498996     1602202615340981ABONO TRANSFERENCIA ENLACE              +00000001210900000005907833482713F46001002870137000001210900                                                                                                                                                                       01468065500341084680FERRETERIA LA FRAGUA SA DE CV                                                                                                  CEA800313C95                                      ABONO TRANSFERENCIA ENLACE                                                                                                        
65500498996     1602202615343597ABONO POR COBRANZA                      +00000001684300000005924676480987569201300403128000001684300                                                                                                                                                                                                                                                                                                                               ABONO POR COBRANZA                                                                                                                
65500498996     1602202615353597ABONO POR COBRANZA                      +00000000051700000005925193480407266801005170352000000051700                                                                                                                                                                                                                                                                                                                               ABONO POR COBRANZA                                                                                                                
65500498996     1602202616003597ABONO POR COBRANZA                      +00000000026200000005925455480044791301003647070000000026200                                                                                                                                                                                                                                                                                                                               ABONO POR COBRANZA                                                                                                                
65500498996     1602202616163597ABONO POR COBRANZA                      +00000000016000000005925615480774419001007085434000000016000                                                                                                                                                                                                                                                                                                                               ABONO POR COBRANZA                                                                                                                
65500498996     1602202616173597ABONO POR COBRANZA                      +00000000009800000005925713480553623201006888317000000009800                                                                                                                                                                                                                                                                                                                               ABONO POR COBRANZA                                                                                                                
65500498996     1602202616280981ABONO TRANSFERENCIA ENLACE              +00000000766000000005933373484814551601003557816000000766000                                                                                                                                                                       01418065509376374180GASOLINERIA DE AMEALCO SA DE CV                                                                                                CEA800313C95                                      ABONO TRANSFERENCIA ENLACE                                                                                                        
65500498996     1602202616373597ABONO POR COBRANZA                      +00000000032100000005933694480772284001300539095000000032100                                                                                                                                                                                                                                                                                                                               ABONO POR COBRANZA                                                                                                                
65500498996     1602202616453687ABONO POR COBRANZA TARJ CRED            +00000000018200000005933876480000000001004687034000000018200                                                                                                                                                                                                                                                                                                                               ABONO POR COBRANZA TARJ CRED                                                                                                      
65500498996     1602202616523597ABONO POR COBRANZA                      +00000000017500000005934051480258295701003224987000000012500                                                                                                                                                                                                                                                                                                                               ABONO POR COBRANZA                                                                                                                
65500498996     1602202617063597ABONO POR COBRANZA                      +00000000034600000005934397480060243801007056088000000034600                                                                                                                                                                                                                                                                                                                               ABONO POR COBRANZA                                                                                                                
65500498996     1602202617090890ABONO POR COBRANZA                      +00000000037400000005934771480000000001004248688000000037400                                                                                                                                                                                                                                                                                                                               ABONO POR COBRANZA                                                                                                                
65500498996     1602202617200981ABONO TRANSFERENCIA ENLACE              +00000000370100000005938472484780Q22600004006607                                                                                                                                                                                   01476065508693360760T Y P REFRIGERACION SA DE CV                                                                                                   CEA800313C95                                      ABONO TRANSFERENCIA ENLACE                                                                                                        
65500498996     1602202617253597ABONO POR COBRANZA                      +00000000037400000005938846480011230801005738505000000037400                                                                                                                                                                                                                                                                                                                               ABONO POR COBRANZA                                                                                                                
65500498996     1602202617353597ABONO POR COBRANZA                      +00000000019800000005939044480918450301006000087000000019800                                                                                                                                                                                                                                                                                                                               ABONO POR COBRANZA                                                                                                                
65500498996     1602202617363687ABONO POR COBRANZA TARJ CRED            +00000000015900000005939203480000000001004531661000000015900                                                                                                                                                                                                                                                                                                                               ABONO POR COBRANZA TARJ CRED                                                                                                      
65500498996     1602202617363597ABONO POR COBRANZA                      +00000000040700000005939610480651004001006658819000000040700                                                                                                                                                                                                                                                                                                                               ABONO POR COBRANZA                                                                                                                
65500498996     1602202617373597ABONO POR COBRANZA                      +00000000008200000005939692480646130101006414825000000008200                                                                                                                                                                                                                                                                                                                               ABONO POR COBRANZA                                                                                                                
65500498996     1602202617410981ABONO TRANSFERENCIA ENLACE              +00000000413200000005943824483400E37701004621157000000413200                                                                                                                                                                       01421065500664739210PINTURAS EZEQUIEL MONTES DE QUERETARO SADE CV                                                                                  CEA800313C95                                      ABONO TRANSFERENCIA ENLACE                                                                                                        
65500498996     1602202617450890ABONO POR COBRANZA                      +00000000033200000005944156480000000001006289680000000033200                                                                                                                                                                                                                                                                                                                               ABONO POR COBRANZA                                                                                                                
65500498996     1602202618063597ABONO POR COBRANZA                      +00000000052500000005944681480795962401006456990000000115200                                                                                                                                                                                                                                                                                                                               ABONO POR COBRANZA                                                                                                                
65500498996     1602202618153597ABONO POR COBRANZA                      +00000000047500000005945156480705451701300561255000000047500                                                                                                                                                                                                                                                                                                                               ABONO POR COBRANZA                                                                                                                
65500498996     1602202618273597ABONO POR COBRANZA                      +00000000027100000005945427480822622501006707368000000027100                                                                                                                                                                                                                                                                                                                               ABONO POR COBRANZA                                                                                                                
65500498996     1602202618453687ABONO POR COBRANZA TARJ CRED            +00000000032100000005945748480000000001007035108000000032100                                                                                                                                                                                                                                                                                                                               ABONO POR COBRANZA TARJ CRED                                                                                                      
65500498996     1602202618453597ABONO POR COBRANZA                      +00000000077900000005946527480208605301005902754000000077900                                                                                                                                                                                                                                                                                                                               ABONO POR COBRANZA                                                                                                                
65500498996     1602202619060981ABONO TRANSFERENCIA ENLACE              +00000002674000000005973267481758P18701006790927000002674000                                                                                                                                                                       01468065506242445680ASOCIACION DE CONDOMINOS BALCHE AC                                                                                             CEA800313C95                                      ABONO TRANSFERENCIA ENLACE                                                                                                        
65500498996     1602202619403597ABONO PAGOS RAPIDOS SERVICIOS           +00000000007700000005973344480681476501005043047000000007700                                                                                                                                                                                                                                                                                                                               ABONO PAGOS RAPIDOS SERVICIOS                                                                                                     
65500498996     1602202619490890ABONO POR COBRANZA                      +000000000589000000059739334800000000000005488200                                                                                                                                                                                                                                                                                                                                          ABONO POR COBRANZA                                                                                                                
65500498996     1602202619583597ABONO POR COBRANZA                      +00000000007200000005974005480889152901300481942000000007200                                                                                                                                                                                                                                                                                                                               ABONO POR COBRANZA                                                                                                                
65500498996     1602202620003597ABONO POR COBRANZA                      +00000000023400000005974239480853609501004277620000000023400                                                                                                                                                                                                                                                                                                                               ABONO POR COBRANZA                                                                                                                
65500498996     1602202620203597ABONO POR COBRANZA                      +00000000014500000005974384480304703401007313034000000014500                                                                                                                                                                                                                                                                                                                               ABONO POR COBRANZA                                                                                                                
65500498996     1602202620293597ABONO POR COBRANZA                      +00000000020400000005974588480694035901006229579000000020400                                                                                                                                                                                                                                                                                                                               ABONO POR COBRANZA                                                                                                                
65500498996     1602202620433597ABONO PAGOS RAPIDOS SERVICIOS           +00000000035500000005974943480889106801301590808000000035500                                                                                                                                                                                                                                                                                                                               ABONO PAGOS RAPIDOS SERVICIOS                                                                                                     
65500498996     1602202620583597ABONO POR COBRANZA                      +00000000029100000005975234480452131801004726972000000029100                                                                                                                                                                                                                                                                                                                               ABONO POR COBRANZA                                                                                                                
65500498996     1602202620593597ABONO POR COBRANZA                      +00000000013900000005975373480486910601002920262000000013900                                                                                                                                                                                                                                                                                                                               ABONO POR COBRANZA                                                                                                                
65500498996     1602202621013597ABONO POR COBRANZA                      +00000000046500000005975838480353770201003249620000000046500                                                                                                                                                                                                                                                                                                                               ABONO POR COBRANZA                                                                                                                
65500498996     1602202621073687ABONO POR COBRANZA TARJ CRED            +00000000028000000005976118480000000001006113286000000028000                                                                                                                                                                                                                                                                                                                               ABONO POR COBRANZA TARJ CRED                                                                                                      
65500498996     1602202621133597ABONO POR COBRANZA                      +00000000048500000005976603480637134201007105471000000048500                                                                                                                                                                                                                                                                                                                               ABONO POR COBRANZA                                                                                                                
65500498996     1602202621173597ABONO POR COBRANZA                      +00000000017900000005976782480870830001005688536000000017900                                                                                                                                                                                                                                                                                                                               ABONO POR COBRANZA                                                                                                                
65500498996     1602202621363597ABONO POR COBRANZA                      +00000000032200000005977104480818299901300808557000000032200                                                                                                                                                                                                                                                                                                                               ABONO POR COBRANZA                                                                                                                
65500498996     1602202621373597ABONO POR COBRANZA                      +00000000065800000005977762480696513201007224090000000065800                                                                                                                                                                                                                                                                                                                               ABONO POR COBRANZA                                                                                                                
65500498996     1602202621403597ABONO POR COBRANZA                      +00000000037300000005978135480044914901004927679000000037300                                                                                                                                                                                                                                                                                                                               ABONO POR COBRANZA                                                                                                                
