0001M08202408L20000462625GRANADOS DE LEON, VICENTE                                                                                               0001000070689000000131                      SANTIAGO DE MACHACA           22002173000010000666186IOTN01-DISTRITO NORORIENTE            111002136    0013SN 000000000000000008L RO000000000000000008L RO000000000000000007L RO000000000000000007L RO000000000000000006000000022N00000000000000000000000          NCONTADOR                                NS  N                                                                                                              000452500000000000               1N000070689000000131                                                                                                                                                                140100131279002     DOMÉSTICO ECONÓMICO           1/2  OTROS (ESPECIFICAR)                                                                                                               0000000001SANTIAGO DE QUERETARO                   SANTIAGO DE QUERÉTARO                   1OTI001900000000008DOMESTICO ECONOMICO                          00000000070000000011  LCL  011142815   VILLAS DE SANTIAGO DE QUERETAR                                                                                                                                                                                                                                                              
0001M08202408L20000287343MOGOLLON ZERECERO, ADORACIÓN DE MONSERRAT                                                                               0001000070689000000133                      SANTIAGO DE MACHACA           22002173000020000666188IOTN01-DISTRITO NORORIENTE            110170453    0013SN 000000552000000004L   000000556000000004L   000000560000000004L   000000564000000004L   000000564000000565000000575N00000000000000000000000          NCONTADOR                                NS  N                                                                                                              000452502000000000               1N000070689000000133                                                                                                                                                                                    DOMÉSTICO ECONÓMICO           1/2  OTROS (ESPECIFICAR)                                                                                                               0000000002SANTIAGO DE QUERETARO                   SANTIAGO DE QUERÉTARO                   1OTI002300000000004DOMESTICO ECONOMICO                          00000000050000000005  LCL  011145387   VILLAS DE SANTIAGO DE QUERETAR                                                                                                                                                                                                                                                              
0001M08202408L20000322181RAMOS MUNIZ, ENRIQUETA                                                                                                  0001000070689000000135                      SANTIAGO DE MACHACA           22002173000030000666190ENEN01-DISTRITO NORORIENTE            11031670     0013SN 000006229000000009L   000006238000000009L   000006247000000009L   000006255000000008L   000006255000006258000006280N00000000000000000000000          NCONTADOR                                NS  N                                                                                                              000452504000000000               1N000070689000000135                                                                                                                                                                                    DOMÉSTICO ECONÓMICO           1/2  NICHO EN EXTERIOR                                                                                                                 0000000003SANTIAGO DE QUERETARO                   SANTIAGO DE QUERÉTARO                   1NEE002270000000011DOMESTICO ECONOMICO                          00000000110000000013  LCL  011160433   VILLAS DE SANTIAGO DE QUERETAR                                                                                                                                                                                                                                                              
0001M08202408L20000335394GUERRA LEDESMA, MA. LOURDES                                                                                             0001000070689000000137                      SANTIAGO DE MACHACA           22002173000040000666192ICJN01-DISTRITO NORORIENTE            107443035    0013SN 000000964000000003L   000000969000000005L   000000976000000007L   000000983000000007L   000000983000000985000001003N00000000000000000000000          NCONTADOR                                NS  N                                                                                                              000452506000000000               1N000070689000000137                                                                                                                                                                                    DOMÉSTICO ECONÓMICO           1/2  CAJA DE BANQUETA                                                                                                                  0000000004SANTIAGO DE QUERETARO                   SANTIAGO DE QUERÉTARO                   1CJI002350000000005DOMESTICO ECONOMICO                          00000000060000000009  LCL  011143810   VILLAS DE SANTIAGO DE QUERETAR                                                                                                                                                                                                                                                              
0001M08202408L20000280706BALDERAS SANDOVAL, JOSE MARCOS                                                                                          0001000070689000000139                      SANTIAGO DE MACHACA           22002173000050000666194IJCN01-DISTRITO NORORIENTE            1186052573   0013SN 000000402000000001L   000000407000000005L   000000407000000000L CB000000407000000000L CB000000407000000408000000418N00000000000000000000000          NCONTADOR                                NS  N                                                                                                              000452508000000000               1N000070689000000139                                                                                                                                                                140100131279006     DOMÉSTICO ECONÓMICO           1/2  JARDIN O COCHERA                                                                                                                  0000000005SANTIAGO DE QUERETARO                   SANTIAGO DE QUERÉTARO                   1JCI001260000000002DOMESTICO ECONOMICO                          00000000020000000002  LCL  011142763   VILLAS DE SANTIAGO DE QUERETAR                                                                                                                                                                                                                                                              
0001M08202408L20000528276ALVAREZ MANRIQUEZ, RAFAEL                                                                                               0001000070689000000141                      SANTIAGO DE MACHACA           22002173000060000666196IJCN01-DISTRITO NORORIENTE            1186052578   0013SN 000000823000000014L   000000837000000014L   000000856000000019L   000000869000000013L   000000869000000876000000896N00000000000000000000000          NCONTADOR                                NS  N                                                                                                              000452510000000000               1N000070689000000141                                                                                                                                                                                    DOMÉSTICO ECONÓMICO           1/2  JARDIN O COCHERA                                                                                                                  0000000006SANTIAGO DE QUERETARO                   SANTIAGO DE QUERÉTARO                   1JCI001260000000014DOMESTICO ECONOMICO                          00000000150000000014  LCL  011144773   VILLAS DE SANTIAGO DE QUERETAR                                                                                                                                                                                                                                                              
0001M08202408L20000690474RIVERA HERRERA, SANDRA FABIOLA                                                                                          0001000070689000000143                      SANTIAGO DE MACHACA           22002173000070000666198IOTN01-DISTRITO NORORIENTE            111090821    0013SN 000001620000000011L   000001632000000012L   000001646000000014L   000001657000000011L   000001657000001663000001708N00000000000000000000000          NCONTADOR                                NS  N                                                                                                              000452512000000000               1N000070689000000143                                                                                                                                                                140100131279008     DOMÉSTICO ECONÓMICO           1/2  OTROS (ESPECIFICAR)                                                                                                               0000000007SANTIAGO DE QUERETARO                   SANTIAGO DE QUERÉTARO                   1OTI002350000000012DOMESTICO ECONOMICO                          00000000140000000028CELCL  011142848   VILLAS DE SANTIAGO DE QUERETAR                                                                                                                                                                                                                                                              
0001M08202408L20000497497PERRUSQUIA SANCHEZ, MA ISABEL                                                                                           0001000070689000000145                      SANTIAGO DE MACHACA           22002173000080000666200IJCN01-DISTRITO NORORIENTE            1186052574   0013SN 000000424000000000L CB000000424000000000L CB000000424000000000L CB000000424000000000L CB000000424000000425000000499N00000000000000000000000          NCONTADOR                                NS  N                                                                                                              000452514000000000               1N000070689000000145                                                                                                                                                                                    DOMÉSTICO ECONÓMICO           1/2  JARDIN O COCHERA                                                                                                                  0000000008SANTIAGO DE QUERETARO                   SANTIAGO DE QUERÉTARO                   1JCI001260000000000DOMESTICO ECONOMICO                          00000000040000000044CELCL  011143136   VILLAS DE SANTIAGO DE QUERETAR                                                                                                                                                                                                                                                              
0001M08202408L20000445024HERNANDEZ LARA, JUVENCIO                                                                                                0001000070689000000147                      SANTIAGO DE MACHACA           22002173000090000666201IJCN01-DISTRITO NORORIENTE            1186052580   0013SN 000000227000000011L   000000241000000014L   000000256000000015L   000000267000000011L   000000267000000269000000289N00000000000000000000000          NCONTADOR                                NS  N                                                                                                              000452515000000000               1N000070689000000147                                                                                                                                                                140100131279010     DOMÉSTICO ECONÓMICO           1/2  JARDIN O COCHERA                                                                                                                  0000000009SANTIAGO DE QUERETARO                   SANTIAGO DE QUERÉTARO                   1JCI001260000000010DOMESTICO ECONOMICO                          00000000060000000001  LCL  011142806   VILLAS DE SANTIAGO DE QUERETAR                                                                                                                                                                                                                                                              
0001M08202408L20000519462VANEGAS MENDOZA, JUAN IGNACIO                                                                                           0001000055349000000120                      SANTIAGO DE HUATA             22002173000100000665402ECEN01-DISTRITO NORORIENTE            1176015547   0013SN 000000891000000010L   000000900000000009L   000000908000000008L   000000917000000009L   000000917000000920000000976N00000000000000000000000          NCONTADOR                                NS  N                                                                                                              000451755000000000               1N000055349000000120                                                                                                                                                                140100131279011     DOMÉSTICO ECONÓMICO           1/2  CUADRO EN EL EXTERIOR                                                                                                             0000000010SANTIAGO DE QUERETARO                   SANTIAGO DE QUERÉTARO                   1CEE001260000000010DOMESTICO ECONOMICO                          00000000210000000035  LCL  011142821   VILLAS DE SANTIAGO DE QUERETAR                                                                                                                                                                                                                                                              
0001M08202408L20000580734PASARAN JUAREZ, HUMBERTO                                                                                                0001000055349000000118                      SANTIAGO DE HUATA             22002173000110000665400IOTN01-DISTRITO NORORIENTE            1A09S208448  0013SN 000002022000000016L   000002038000000016L   000002054000000016L   000002071000000017L   000002071000002080000002105N00000000000000000000000          NCONTADOR                                NS  N                                                                                                              000451753000000000               1N000055349000000118                                                                                                                                                                                    DOMÉSTICO ECONÓMICO           1/2  OTROS (ESPECIFICAR)                                                                                                               0000000011SANTIAGO DE QUERETARO                   SANTIAGO DE QUERÉTARO                   1OTI002450000000016DOMESTICO ECONOMICO                          00000000160000000016  LCL  011143442   VILLAS DE SANTIAGO DE QUERETAR                                                                                                                                                                                                                                                              
0001M08202408L20000657392GUTIERREZ AGUILAR, MA.SOCORRO                                                                                           0001000055349000000116                      SANTIAGO DE HUATA             22002173000120000665398IOTN01-DISTRITO NORORIENTE            1176006291   0013SN 000000890000000011L   000000902000000012L   000000916000000014L   000000928000000012L   000000928000000931000000955N00000000000000000000000          NCONTADOR                                NS  N                                                                                                              000451751000000000               1N000055349000000116                                                                                                                                                                                    DOMÉSTICO ECONÓMICO           1/2  OTROS (ESPECIFICAR)                                                                                                               0000000012SANTIAGO DE QUERETARO                   SANTIAGO DE QUERÉTARO                   1OTI001260000000011DOMESTICO ECONOMICO                          00000000100000000014  LCL  011151955   VILLAS DE SANTIAGO DE QUERETAR                                                                                                                                                                                                                                                              
0001M08202408L20000453881SAAVEDRA SANCHEZ, MIGUEL                                                                                                0001000055349000000114                      SANTIAGO DE HUATA             22002173000130000665396ICJN01-DISTRITO NORORIENTE            119286038    0013SN 000001588000000007L   000001594000000006L   000001601000000007L   000001607000000006L   000001607000001609000001681N00000000000000000000000          NCONTADOR                                NS  N                                                                                                              000451749000000000               1N000055349000000114                                                                                                                                                                140100131279014     DOMÉSTICO ECONÓMICO           1/2  CAJA DE BANQUETA                                                                                                                  0000000013SANTIAGO DE QUERETARO                   SANTIAGO DE QUERÉTARO                   1CJI002300000000009DOMESTICO ECONOMICO                          00000000170000000043  LCL  011142718   VILLAS DE SANTIAGO DE QUERETAR                                                                                                                                                                                                                                                              
0001M08202408L20000593946PRADO REYES, ARACELI                                                                                                    0001000055349000000112                      SANTIAGO DE HUATA             22002173000140000665394IJCN01-DISTRITO NORORIENTE            1186036608   0013SN 000000655000000009L   000000665000000010L   000000674000000009L   000000683000000009L   000000683000000684000000703N00000000000000000000000          NCONTADOR                                NS  N                                                                                                              000451747000000000               1N000055349000000112                                                                                                                                                                140100131279015     DOMÉSTICO ECONÓMICO           1/2  JARDIN O COCHERA                                                                                                                  0000000014SANTIAGO DE QUERETARO                   SANTIAGO DE QUERÉTARO                   1JCI002450000000010DOMESTICO ECONOMICO                          00000000080000000004  LCL  011142749   VILLAS DE SANTIAGO DE QUERETAR                                                                                                                                                                                                                                                              
0001M08202408L20000561052OSORIO LARA, LUZ ESTELA                                                                                                 0001000055349000000110                      SANTIAGO DE HUATA             22002173000150000665392IOTN01-DISTRITO NORORIENTE            1176014237   0013SN 000000431000000003L   000000435000000004L   000000440000000005L   000000445000000005L   000000445000000446000000465N00000000000000000000000          NCONTADOR                                NS  N                                                                                                              000451745000000000               1N000055349000000110                                                                                                                                                                140100131279016     DOMÉSTICO ECONÓMICO           1/2  OTROS (ESPECIFICAR)                                                                                                               0000000015SANTIAGO DE QUERETARO                   SANTIAGO DE QUERÉTARO                   1OTI001260000000004DOMESTICO ECONOMICO                          00000000040000000004  LCL  011142730   VILLAS DE SANTIAGO DE QUERETAR                                                                                                                                                                                                                                                              
0001M08202408L20000589513GONZALEZ SANCHEZ, MA. DEL CARMEN                                                                                        0001000055349000000108                      SANTIAGO DE HUATA             22002173000160000665390ECEN01-DISTRITO NORORIENTE            1176014417   0013SN 000000855000000009L   000000866000000011L   000000878000000012L   000000893000000015L   000000893000000902000000930N00000000000000000000000          NCONTADOR                                NS  N                                                                                                              000451743000000000               1N000055349000000108                                                                                                                                                                                    DOMÉSTICO ECONÓMICO           1/2  CUADRO EN EL EXTERIOR                                                                                                             0000000016SANTIAGO DE QUERETARO                   SANTIAGO DE QUERÉTARO                   1CEE001260000000014DOMESTICO ECONOMICO                          00000000180000000021  LCL  011142839   VILLAS DE SANTIAGO DE QUERETAR                                                                                                                                                                                                                                                              
0001M08202408L20000293813AGUAYO MOSQUEDA, MARTHA ANGELICA                                                                                        0001000055349000000106                      SANTIAGO DE HUATA             22002173000170000665388ECEN01-DISTRITO NORORIENTE            1176014418   0013SN 000000559000000006L   000000567000000008L   000000574000000007L   000000580000000006L   000000580000000581000000600N00000000000000000000000          NCONTADOR                                NS  N                                                                                                              000451741000000000               1N000055349000000106                                                                                                                                                                140100131279018     DOMÉSTICO ECONÓMICO           1/2  CUADRO EN EL EXTERIOR                                                                                                             0000000017SANTIAGO DE QUERETARO                   SANTIAGO DE QUERÉTARO                   1CEE001260000000007DOMESTICO ECONOMICO                          00000000070000000004  LCL  011142871   VILLAS DE SANTIAGO DE QUERETAR                                                                                                                                                                                                                                                              
0001M08202408L20000407963HERNANDEZ GUTIERREZ, LAURENCIO                                                                                          0001000055349000000104                      SANTIAGO DE HUATA             22002173000180000665386IOTN01-DISTRITO NORORIENTE            1A09S208441  0013SN 000000633000000007L   000000643000000010L   000000651000000008L   000000664000000013L   000000664000000667000000689N00000000000000000000000          NCONTADOR                                NS  N                                                                                                              000451739000000000               1N000055349000000104                                                                                                                                                                140100131279019     DOMÉSTICO ECONÓMICO           1/2  OTROS (ESPECIFICAR)                                                                                                               0000000018SANTIAGO DE QUERETARO                   SANTIAGO DE QUERÉTARO                   1OTI002450000000009DOMESTICO ECONOMICO                          00000000090000000008  LCL  011143697   VILLAS DE SANTIAGO DE QUERETAR                                                                                                                                                                                                                                                              
0001M08202408L20000445019COVARRUBIAS ANAYA, IRMA LETICIA                                                                                         0001000055349000000103                      SANTIAGO DE HUATA             22002173000190000665385IOTN01-DISTRITO NORORIENTE            1A09S208430  0013SN 000001649000000003L   000001655000000006L   000001658000000003L   000001663000000005L   000001663000001665000001683N00000000000000000000000          NCONTADOR                                NS  N                                                                                                              000451738000000000               1N000055349000000103                                                                                                                                                                140100131280002     DOMÉSTICO ECONÓMICO           1/2  OTROS (ESPECIFICAR)                                                                                                               0000000019SANTIAGO DE QUERETARO                   SANTIAGO DE QUERÉTARO                   1OTI002450000000004DOMESTICO ECONOMICO                          00000000060000000006  LCL  011143887   VILLAS DE SANTIAGO DE QUERETAR                                                                                                                                                                                                                                                              
0001M08202408L20000285131RODRIGUEZ CERNA, JAVIER                                                                                                 0001000055349000000105                      SANTIAGO DE HUATA             22002173000200000665387ICIN01-DISTRITO NORORIENTE            111085419    0013SN 000000415000000000TETE000000524000000050M 19000000524000000000TETE000000524000000000TETE000000524000000524000000535N00000000000000000000000          NCONTADOR                                NS  N                                                                                                              000451740000000000               1N000055349000000105                                                                                                                                                                                    DOMÉSTICO ECONÓMICO           1/2  CUADRO EN EL INTERIOR                                                                                                             0000000020SANTIAGO DE QUERETARO                   SANTIAGO DE QUERÉTARO                   1CII002350000000008DOMESTICO ECONOMICO                          00000000040000000000CDLCL  011146621   VILLAS DE SANTIAGO DE QUERETAR                                                                                                                                                                                                                                                              
0001M08202408L20000639863LUCAS RESENDIZ, J. JESUS                                                                                                0001000055349000000107                      SANTIAGO DE HUATA             22002173000210000665389ICJN01-DISTRITO NORORIENTE            121004202    0013SN 000000005000000001L   000000005000000000L   000000006000000001L   000000006000000000L   000000006000000006000000017N00000000000000000000000          NCONTADOR                                NS  N                                                                                                              000451742000000000               1N000055349000000107                                                                                                                                                                                    DOMÉSTICO ECONÓMICO           1/2  CAJA DE BANQUETA                                                                                                                  0000000021SANTIAGO DE QUERETARO                   SANTIAGO DE QUERÉTARO                   1CJI002300000000000DOMESTICO ECONOMICO                          00000000000000000001  LCL  011150714   VILLAS DE SANTIAGO DE QUERETAR                                                                                                                                                                                                                                                              
0001M08202408L20000631029NAVA, JOSE LUIS                                                                                                         0001000055349000000109                      SANTIAGO DE HUATA             22002173000220000665391IOTN01-DISTRITO NORORIENTE            1A09S208425  0013SN 000001440000000005L   000001446000000006L   000001453000000007L   000001459000000006L   000001459000001461000001479N00000000000000000000000          NCONTADOR                                NS  N                                                                                                              000451744000000000               1N000055349000000109                                                                                                                                                                140100131280005     DOMÉSTICO ECONÓMICO           1/2  OTROS (ESPECIFICAR)                                                                                                               0000000022SANTIAGO DE QUERETARO                   SANTIAGO DE QUERÉTARO                   1OTI002450000000006DOMESTICO ECONOMICO                          00000000070000000008  LCL  011143619   VILLAS DE SANTIAGO DE QUERETAR                                                                                                                                                                                                                                                              
0001M08202408L20000578559PRADO REYES, MA TERESA RAQUEL                                                                                           0001000055349000000111                      SANTIAGO DE HUATA             22002173000230000665393ECEN01-DISTRITO NORORIENTE            1176014238   0013SN 000000991000000010L   000001004000000013L   000001023000000019L   000001035000000012L   000001035000001041000001062N00000000000000000000000          NCONTADOR                                NS  N                                                                                                              000451746000000000               1N000055349000000111                                                                                                                                                                140100131280006     DOMÉSTICO ECONÓMICO           1/2  CUADRO EN EL EXTERIOR                                                                                                             0000000023SANTIAGO DE QUERETARO                   SANTIAGO DE QUERÉTARO                   1CEE001260000000012DOMESTICO ECONOMICO                          00000000150000000011  LCL  011142817   VILLAS DE SANTIAGO DE QUERETAR                                                                                                                                                                                                                                                              
0001M08202408L20000523938RAMIREZ GARDUNO, LUIS                                                                                                   0001000055349000000113                      SANTIAGO DE HUATA             22002173000240000665395ECEN01-DISTRITO NORORIENTE            1176014239   0013SN 000001807000000022L   000001829000000022L   000001852000000023L   000001874000000022L   000001874000001885000001915N00000000000000000000000          NCONTADOR                                NS  N                                                                                                              000451748000000000               1N000055349000000113                                                                                                                                                                140100131280007     DOMÉSTICO ECONÓMICO           1/2  CUADRO EN EL EXTERIOR                                                                                                             0000000024SANTIAGO DE QUERETARO                   SANTIAGO DE QUERÉTARO                   1CEE001260000000023DOMESTICO ECONOMICO                          00000000210000000021  LCL  011144842   VILLAS DE SANTIAGO DE QUERETAR                                                                                                                                                                                                                                                              
0001M08202408L20000523939VAZQUEZ ESPINOZA, MILTON JAVIER                                                                                         0001000055349000000115                      SANTIAGO DE HUATA             22002173000250000665397ECEN01-DISTRITO NORORIENTE            1176014240   0013SN 000000673000000000L CD000000673000000000L CD000000673000000000L CD000000673000000000L CD000000673000000676000000693S00000000000000000000000          NCONTADOR                                NS  N                                                                                                              000451750000000000               1N000055349000000115                                                                                                                                                                                    DOMÉSTICO ECONÓMICO           1/2  CUADRO EN EL EXTERIOR                                                                                                             0000000025SANTIAGO DE QUERETARO                   SANTIAGO DE QUERÉTARO                   1CEE001260000000015DOMESTICO ECONOMICO                          00000000130000000065CELCL  011142991   VILLAS DE SANTIAGO DE QUERETAR                                                                                                                                                                                                                                                              
0001M08202408L20000506307AVILA HERNANDEZ, OMAR                                                                                                   0001000055349000000117                      SANTIAGO DE HUATA             22002173000260000665399IOTN01-DISTRITO NORORIENTE            1A09S208432  0013SN 000002113000000000TETE000002113000000000TETE000002113000000000TETE000002153000000022M 19000002153000002155000002164N00000000000000000000000          NCONTADOR                                NS  N                                                                                                              000451752000000000               1N000055349000000117                                                                                                                                                                                    DOMÉSTICO ECONÓMICO           1/2  OTROS (ESPECIFICAR)                                                                                                               0000000026SANTIAGO DE QUERETARO                   SANTIAGO DE QUERÉTARO                   1OTI002450000000005DOMESTICO ECONOMICO                          00000000050000000000  TCL  011143425   VILLAS DE SANTIAGO DE QUERETAR                                                                                                                                                                                                                                                              
0001M08202408L20000480058ESQUIVEL QUIROZ, BERTHA                                                                                                 0001000055349000000119                      SANTIAGO DE HUATA             22002173000270000665401IOTN01-DISTRITO NORORIENTE            17439830     0013SN 000001143000000002L   000001146000000003L   000001148000000002L   000001149000000001L   000001149000001150000001160N00000000000000000000000          NCONTADOR                                NS  N                                                                                                              000451754000000000               1N000055349000000119                                                                                                                                                                                    DOMÉSTICO ECONÓMICO           1/2  OTROS (ESPECIFICAR)                                                                                                               0000000027SANTIAGO DE QUERETARO                   SANTIAGO DE QUERÉTARO                   1OTI002350000000002DOMESTICO ECONOMICO                          00000000020000000001  LCL  011146632   VILLAS DE SANTIAGO DE QUERETAR                                                                                                                                                                                                                                                              
0001M08202408L20000372851GARCIA GARCIA, SARA                                                                                                     0001000054119000000120                      SANTIAGO DE AHUITZOTLE        22002173000280000664949ICIN01-DISTRITO NORORIENTE            1186036607   0013SN 000000330000000003L   000000332000000002L   000000335000000003L   000000338000000003L   000000338000000339000000349N00000000000000000000000          NCONTADOR                                NS  N                                                                                                              000451567000000000               1N000054119000000120                                                                                                                                                                                    DOMÉSTICO ECONÓMICO           1/2  CUADRO EN EL INTERIOR                                                                                                             0000000028SANTIAGO DE QUERETARO                   SANTIAGO DE QUERÉTARO                   1CII002450000000003DOMESTICO ECONOMICO                          00000000040000000004  LCL  011146473   VILLAS DE SANTIAGO DE QUERETAR                                                                                                                                                                                                                                                              
0001M08202408L20000668509ORTEGA WRIGHT, JESUS                                                                                                    0001000054119000000118                      SANTIAGO DE AHUITZOTLE        22002173000290000664947ICJN01-DISTRITO NORORIENTE            1186069778   0013SN 000000329000000004L   000000334000000005L   000000338000000004L   000000340000000002L   000000340000000341000000351N00000000000000000000000          NCONTADOR                                NS  N                                                                                                              000451565000000000               1N000054119000000118                                                                                                                                                                140100131280012     DOMÉSTICO ECONÓMICO           1/2  CAJA DE BANQUETA                                                                                                                  0000000029SANTIAGO DE QUERETARO                   SANTIAGO DE QUERÉTARO                   1CJI001260000000004DOMESTICO ECONOMICO                          00000000040000000004  LCL  011143816   VILLAS DE SANTIAGO DE QUERETAR                                                                                                                                                                                                                                                              
0001M08202408L20000504112MEDINA RODRIGUEZ, MARTIN                                                                                                0001000054119000000116                      SANTIAGO DE AHUITZOTLE        22002173000300000664945ECEN01-DISTRITO NORORIENTE            1176014479   0013SN 000001589000000017L   000001608000000019L   000001629000000021L   000001648000000019L   000001648000001658000001684N00000000000000000000000          NCONTADOR                                NS  N                                                                                                              000451563000000000               1N000054119000000116                                                                                                                                                                                    DOMÉSTICO ECONÓMICO           1/2  CUADRO EN EL EXTERIOR                                                                                                             0000000030SANTIAGO DE QUERETARO                   SANTIAGO DE QUERÉTARO                   1CEE001260000000019DOMESTICO ECONOMICO                          00000000200000000018  LCL  011143757   VILLAS DE SANTIAGO DE QUERETAR                                                                                                                                                                                                                                                              
0001M08202408L20000326517GUERRERO PEREZ, ARACELI                                                                                                 0001000054119000000114                      SANTIAGO DE AHUITZOTLE        22002173000310000664943IJCN01-DISTRITO NORORIENTE            118001823    0013SN 000000118000000002L   000000122000000004L   000000124000000002L   000000124000000000L CB000000124000000125000000135N00000000000000000000000          NCONTADOR                                NS  N                                                                                                              000451561000000000               1N000054119000000114                                                                                                                                                                140100131280014     DOMÉSTICO ECONÓMICO           1/2  JARDIN O COCHERA                                                                                                                  0000000031SANTIAGO DE QUERETARO                   SANTIAGO DE QUERÉTARO                   1JCI001260000000002DOMESTICO ECONOMICO                          00000000020000000003  LCL  011143163   VILLAS DE SANTIAGO DE QUERETAR                                                                                                                                                                                                                                                              
0001M08202408L20000348590MENDIETA FLORES, FRANCISCO                                                                                              0001000054119000000112                      SANTIAGO DE AHUITZOTLE        22002173000320000664941EAFN01-DISTRITO NORORIENTE            1176014413   0013SN 000000270000000005L   000000276000000006L   000000282000000006L   000000288000000006L   000000288000000289000000308N00000000000000000000000          NCONTADOR                                NS  N                                                                                                              000451559000000000               1N000054119000000112                                                                                                                                                                140100131280015     DOMÉSTICO ECONÓMICO           1/2  AZOTEA DE EDIFICIO                                                                                                                0000000032SANTIAGO DE QUERETARO                   SANTIAGO DE QUERÉTARO                   1AFE001260000000005DOMESTICO ECONOMICO                          00000000050000000004  LCL  011143004   VILLAS DE SANTIAGO DE QUERETAR                                                                                                                                                                                                                                                              
0001M08202408L20000659737GARCIA MARROQUIN, GLORIA LETICIA                                                                                        0001000054119000000110                      SANTIAGO DE AHUITZOTLE        22002173000330000664939EEXN01-DISTRITO NORORIENTE            121000546    0013SN 000000071000000004L   000000075000000004L   000000078000000003L   000000081000000003L   000000081000000082000000092N00000000000000000000000          NCONTADOR                                NS  N                                                                                                              000451557000000000               1N000054119000000110                                                                                                                                                                                    DOMÉSTICO ECONÓMICO           1/2  EXTERIOR                                                                                                                          0000000033SANTIAGO DE QUERETARO                   SANTIAGO DE QUERÉTARO                   1EXE002300000000003DOMESTICO ECONOMICO                          00000000040000000004  LCL  011150608   VILLAS DE SANTIAGO DE QUERETAR                                                                                                                                                                                                                                                              
0001M08202408L20000456057RODRIGUEZ CHAVEZ, MARIO FELIX                                                                                           0001000054119000000108                      SANTIAGO DE AHUITZOTLE        22002173000340000664937ECEN01-DISTRITO NORORIENTE            1176014484   0013SN 000000978000000025L   000001007000000029L   000001036000000029L   000001043000000007L   000001043000001045000001068N00000000000000000000000          NCONTADOR                                NS  N                                                                                                              000451555000000000               1N000054119000000108                                                                                                                                                                                    DOMÉSTICO ECONÓMICO           1/2  CUADRO EN EL EXTERIOR                                                                                                             0000000034SANTIAGO DE QUERETARO                   SANTIAGO DE QUERÉTARO                   1CEE001260000000019DOMESTICO ECONOMICO                          00000000140000000008  LCL  011144166   VILLAS DE SANTIAGO DE QUERETAR                                                                                                                                                                                                                                                              
0001M08202408L20000392624GARCIA NOYOLA, GABRIELA                                                                                                 0001000054119000000106                      SANTIAGO DE AHUITZOTLE        22002173000350000664935IJCN01-DISTRITO NORORIENTE            111085420    0013SN 000001210000000000TETE000001210000000000TETE000001210000000000TETE000001210000000000TETE000001210000001210000001221N00000000000000000000000          NCONTADOR                                NS  N                                                                                                              000451553000000000               1N000054119000000106                                                                                                                                                                                    DOMÉSTICO ECONÓMICO           1/2  JARDIN O COCHERA                                                                                                                  0000000035SANTIAGO DE QUERETARO                   SANTIAGO DE QUERÉTARO                   1JCI002350000000000DOMESTICO ECONOMICO                          00000000010000000000  TCL  011144673   VILLAS DE SANTIAGO DE QUERETAR                                                                                                                                                                                                                                                              
0001M08202408L20000611449ALVAREZ SANCHEZ, J. RAUL                                                                                                0001000054119000000104                      SANTIAGO DE AHUITZOTLE        22002173000360000664933ECEN01-DISTRITO NORORIENTE            1176014420   0013SN 000000247000000000TETE000000247000000000TETE000000263000000016M 19000000287000000024M CD000000287000000287000000298N00000000000000000000000          NCONTADOR                                NS  N                                                                                                              000451551000000000               1N000054119000000104                                                                                                                                                                140100131280019     DOMÉSTICO ECONÓMICO           1/2  CUADRO EN EL EXTERIOR                                                                                                             0000000036SANTIAGO DE QUERETARO                   SANTIAGO DE QUERÉTARO                   1CEE001260000000007DOMESTICO ECONOMICO                          00000000030000000000  TCL  011142915   VILLAS DE SANTIAGO DE QUERETAR                                                                                                                                                                                                                                                              
0001M08202408L20000416633SILVA PARGA, JUAN CARLOS                                                                                                0001000054119000000103                      SANTIAGO DE AHUITZOTLE        22002173000370000664932ECEN01-DISTRITO NORORIENTE            1176014416   0013SN 000000861000000015L   000000861000000000TETE000000861000000000TETE000000916000000020M 19000000916000000918000000947N00000000000000000000000          NCONTADOR                                NS  N                                                                                                              000451550000000000               1N000054119000000103                                                                                                                                                                                    DOMÉSTICO ECONÓMICO           1/2  CUADRO EN EL EXTERIOR                                                                                                             0000000037SANTIAGO DE QUERETARO                   SANTIAGO DE QUERÉTARO                   1CEE001260000000011DOMESTICO ECONOMICO                          00000000140000000016  LCL  011143255   VILLAS DE SANTIAGO DE QUERETAR                                                                                                                                                                                                                                                              
0001M08202408L20000486552ALDAMA SALAZAR, LUISA RAQUEL                                                                                            0001000054119000000105                      SANTIAGO DE AHUITZOTLE        22002173000380000664934IJCN01-DISTRITO NORORIENTE            1176014419   0013SN 000000832000000007L   000000841000000009L   000000848000000007L   000000856000000008L   000000856000000859000000878N00000000000000000000000          NCONTADOR                                NS  N                                                                                                              000451552000000000               1N000054119000000105                                                                                                                                                                140100131281003     DOMÉSTICO ECONÓMICO           1/2  JARDIN O COCHERA                                                                                                                  0000000038SANTIAGO DE QUERETARO                   SANTIAGO DE QUERÉTARO                   1JCI001260000000008DOMESTICO ECONOMICO                          00000000090000000011  LCL  011143038   VILLAS DE SANTIAGO DE QUERETAR                                                                                                                                                                                                                                                              
0001M08202408L20000386103VARGAS ALCALA, JOSE ANTONIO                                                                                             0001000054119000000107                      SANTIAGO DE AHUITZOTLE        22002173000390000664936IOTN01-DISTRITO NORORIENTE            1A09S208374  0013SN 000001303000000009L   000001311000000008L   000001319000000008L   000001331000000012L   000001331000001334000001354N00000000000000000000000          NCONTADOR                                NS  N                                                                                                              000451554000000000               1N000054119000000107                                                                                                                                                                140100131281004     DOMÉSTICO ECONÓMICO           1/2  OTROS (ESPECIFICAR)                                                                                                               0000000039SANTIAGO DE QUERETARO                   SANTIAGO DE QUERÉTARO                   1OTI002450000000009DOMESTICO ECONOMICO                          00000000090000000008  LCL  011143144   VILLAS DE SANTIAGO DE QUERETAR                                                                                                                                                                                                                                                              
0001M08202408L20000694817DIONISIO ANGELES, MARGARITA                                                                                             0001000054119000000109                      SANTIAGO DE AHUITZOTLE        22002173000400000664938IOTN01-DISTRITO NORORIENTE            107430010    0013SN 000000158000000003L   000000162000000004L   000000166000000004L   000000168000000002L   000000168000000169000000188N00000000000000000000000          NCONTADOR                                NS  N                                                                                                              000451556000000000               1N000054119000000109                                                                                                                                                                140100131281005     DOMÉSTICO ECONÓMICO           1/2  OTROS (ESPECIFICAR)                                                                                                               0000000040SANTIAGO DE QUERETARO                   SANTIAGO DE QUERÉTARO                   1OTI002350000000003DOMESTICO ECONOMICO                          00000000030000000006  LCL  011143043   VILLAS DE SANTIAGO DE QUERETAR                                                                                                                                                                                                                                                              
0001M08202408L20000335389MARMOLEJO DUEŃAS, BEATRIZ                                                                                               0001000054119000000111                      SANTIAGO DE AHUITZOTLE        22002173000410000664940IOTN01-DISTRITO NORORIENTE            110104997    0013SN 000001099000000005L   000001105000000006L   000001109000000004L   000001115000000006L   000001115000001117000001135N00000000000000000000000          NCONTADOR                                NS  N                                                                                                              000451558000000000               1N000054119000000111                                                                                                                                                                140100131281006     DOMÉSTICO ECONÓMICO           1/2  OTROS (ESPECIFICAR)                                                                                                               0000000041SANTIAGO DE QUERETARO                   SANTIAGO DE QUERÉTARO                   1OTI002300000000005DOMESTICO ECONOMICO                          00000000050000000005  LCL  011143098   VILLAS DE SANTIAGO DE QUERETAR                                                                                                                                                                                                                                                              
0001M08202408L20000556698ENRIQUE TORRES CARREŃO                                                                                                  0001000054119000000113                      SANTIAGO DE AHUITZOTLE        22002173000420000664942ECEN01-DISTRITO NORORIENTE            1176014477   0013SN 000000061000000001L   000000062000000001L   000000063000000001L   000000064000000001L   000000064000000065000000075N00000000000000000000000          NCONTADOR                                NS  N                                                                                                              000451560000000000               1N000054119000000113                                                                                                                                                                140100131281007     DOMÉSTICO ECONÓMICO           1/2  CUADRO EN EL EXTERIOR                                                                                                             0000000042SANTIAGO DE QUERETARO                   SANTIAGO DE QUERÉTARO                   1CEE001260000000001DOMESTICO ECONOMICO                          00000000020000000001  LCL  011143155   VILLAS DE SANTIAGO DE QUERETAR                                                                                                                                                                                                                                                              
0001M08202408L20000580729HIDALGO RUBIO, EMILIANA                                                                                                 0001000054119000000115                      SANTIAGO DE AHUITZOTLE        22002173000430000664944ECEN01-DISTRITO NORORIENTE            109040314    0013SN 000000709000000000TETE000000709000000000TETE000000717000000008M 19000000719000000002L   000000719000000720000000730N00000000000000000000000          NCONTADOR                                NS  N                                                                                                              000451562000000000               1N000054119000000115                                                                                                                                                                140100131281008     DOMÉSTICO ECONÓMICO           1/2  CUADRO EN EL EXTERIOR                                                                                                             0000000043SANTIAGO DE QUERETARO                   SANTIAGO DE QUERÉTARO                   1CEE002350000000002DOMESTICO ECONOMICO                          00000000020000000000  TCL  011143029   VILLAS DE SANTIAGO DE QUERETAR                                                                                                                                                                                                                                                              
0001M08202408L20000670685HIDALGO CHAGOYA, ANGEL                                                                                                  0001000054119000000117                      SANTIAGO DE AHUITZOTLE        22002173000440000664946ECEN01-DISTRITO NORORIENTE            1A09S208434  0013SN 000000771000000000M 19000000771000000000TETE000000771000000000TETE000000771000000000TETE000000771000000771000000782N00000000000000000000000          NCONTADOR                                NS  N                                                                                                              000451564000000000               1N000054119000000117                                                                                                                                                                140100131281009     DOMÉSTICO ECONÓMICO           1/2  CUADRO EN EL EXTERIOR                                                                                                             0000000044SANTIAGO DE QUERETARO                   SANTIAGO DE QUERÉTARO                   1CEE002450000000000DOMESTICO ECONOMICO                          00000000000000000000  TCL  011143030   VILLAS DE SANTIAGO DE QUERETAR                                                                                                                                                                                                                                                              
0001M08202408L20000392625HERNANDEZ SALGADO, MARIA YOLANDA                                                                                        0001000054119000000119                      SANTIAGO DE AHUITZOTLE        22002173000450000664948ECEN01-DISTRITO NORORIENTE            1176014410   0013SN 000001765000000010L   000001780000000015L   000001796000000016L   000001811000000015L   000001811000001820000001848N00000000000000000000000          NCONTADOR                                NS  N                                                                                                              000451566000000000               1N000054119000000119                                                                                                                                                                                    DOMÉSTICO ECONÓMICO           1/2  CUADRO EN EL EXTERIOR                                                                                                             0000000045SANTIAGO DE QUERETARO                   SANTIAGO DE QUERÉTARO                   1CEE001260000000013DOMESTICO ECONOMICO                          00000000160000000021  LCL  011145956   VILLAS DE SANTIAGO DE QUERETAR                                                                                                                                                                                                                                                              
0001M08202408L20000431901GONZALEZ HERNANDEZ, ROSA                                                                                                0001000056135000000201                      SANTIAGO DE LA PEŃA           22002173000460000665818EEXN01-DISTRITO NORORIENTE            121017396    0013SN 000000189000000006L   000000194000000005L   000000202000000008L   000000208000000006L   000000208000000209000000228N00000000000000000000000          NCONTADOR                                NS  N                                                                                                              000452136000000000               1S000056135000000201                                                                                                                                                                                    DOMÉSTICO ECONÓMICO           1/2  EXTERIOR                                                                                                                          0000000046SANTIAGO DE QUERETARO                   SANTIAGO DE QUERÉTARO                   1EXE002300000000006DOMESTICO ECONOMICO                          00000000050000000004  LCL  011161698   VILLAS DE SANTIAGO DE QUERETAR                                                                                                                                                                                                                                                              
0001M08202408L20000589515MENDEZ SANTOS, ALAN ALBERTO                                                                                             0001000056135000000203                      SANTIAGO DE LA PEŃA           22002173000470000665819IOTN01-DISTRITO NORORIENTE            1176004705   0013SN 000000502000000006L   000000516000000014L   000000537000000021L   000000544000000007L   000000544000000546000000564N00000000000000000000000          NCONTADOR                                NS  N                                                                                                              000452137000000000               1N000056135000000203                                                                                                                                                                140100131282022     DOMÉSTICO ECONÓMICO           1/2  OTROS (ESPECIFICAR)                                                                                                               0000000047SANTIAGO DE QUERETARO                   SANTIAGO DE QUERÉTARO                   1OTI001260000000010DOMESTICO ECONOMICO                          00000000070000000000CBLCL  011142159   VILLAS DE SANTIAGO DE QUERETAR                                                                                                                                                                                                                                                              
0001M08202408L20000688348FULGENCIO RIVERA, MARIA DE LOS ANGELES                                                                                  0001000056135000000205                      SANTIAGO DE LA PEŃA           22002173000480000665820ICJN01-DISTRITO NORORIENTE            123162611    0013SN 000000014000000005L   000000020000000006L   000000026000000006L   000000031000000005L   000000031000000032000000051N00000000000000000000000          NCONTADOR                                NS  N                                                                                                              000452138000000000               1N000056135000000205                                                                                                                                                                140100131282023     DOMÉSTICO ECONÓMICO           1/2  CAJA DE BANQUETA                                                                                                                  0000000048SANTIAGO DE QUERETARO                   SANTIAGO DE QUERÉTARO                   1CJI002300000000005DOMESTICO ECONOMICO                          00000000040000000000CBLCL  011142177   VILLAS DE SANTIAGO DE QUERETAR                                                                                                                                                                                                                                                              
0001M08202408L20000659741MEDINA TORRES, GUILLERMINA                                                                                              0001000056135000000207                      SANTIAGO DE LA PEŃA           22002173000490000665821ICJN01-DISTRITO NORORIENTE            1186073898   0013SN 000000670000000008L   000000679000000009L   000000692000000013L   000000701000000009L   000000701000000704000000721N00000000000000000000000          NCONTADOR                                NS  N                                                                                                              000452139000000000               1N000056135000000207                                                                                                                                                                                    DOMÉSTICO ECONÓMICO           1/2  CAJA DE BANQUETA                                                                                                                  0000000049SANTIAGO DE QUERETARO                   SANTIAGO DE QUERÉTARO                   1CJI001260000000009DOMESTICO ECONOMICO                          00000000100000000008  LCL  011146666   VILLAS DE SANTIAGO DE QUERETAR                                                                                                                                                                                                                                                              
0001M08202408L20000635447DORANTES CAMPUZANO, ARIEL                                                                                               0001000056135000000209                      SANTIAGO DE LA PEŃA           22002173000500000665822IOTN01-DISTRITO NORORIENTE            1186067833   0013SN 000000935000000015L   000000950000000015L   000000966000000016L   000000979000000013L   000000979000000986000001006N00000000000000000000000          NCONTADOR                                NS  N                                                                                                              000452140000000000               1N000056135000000209                                                                                                                                                                                    DOMÉSTICO ECONÓMICO           1/2  OTROS (ESPECIFICAR)                                                                                                               0000000050SANTIAGO DE QUERETARO                   SANTIAGO DE QUERÉTARO                   1OTI001260000000015DOMESTICO ECONOMICO                          00000000140000000013  LCL  011147462   VILLAS DE SANTIAGO DE QUERETAR                                                                                                                                                                                                                                                              
0001M08202408L20000326524MENDEZ MOYA, ALBERTO TOMAS                                                                                              0001000056135000000211                      SANTIAGO DE LA PEŃA           22002173000510000665823IOTN01-DISTRITO NORORIENTE            110040810    0013SN 000001410000000007L   000001419000000009L   000001428000000009L   000001436000000008L   000001436000001437000001456N00000000000000000000000          NCONTADOR                                NS  N                                                                                                              000452141000000000               1N000056135000000211                                                                                                                                                                                    DOMÉSTICO ECONÓMICO           1/2  OTROS (ESPECIFICAR)                                                                                                               0000000051SANTIAGO DE QUERETARO                   SANTIAGO DE QUERÉTARO                   1OTI001900000000008DOMESTICO ECONOMICO                          00000000070000000004  LCL  011159213   VILLAS DE SANTIAGO DE QUERETAR                                                                                                                                                                                                                                                              
0001M08202408L20000462621GALINDO RUIZ, ALBERTO                                                                                                   0001000056135000000213                      SANTIAGO DE LA PEŃA           22002173000520000665824EDCN01-DISTRITO NORORIENTE            1196197233   0013SN 000000213000000006L   000000217000000004L   000000224000000007L   000000227000000003L   000000227000000228000000238N00000000000000000000000          NCONTADOR                                NS  N                                                                                                              000452142000000000               1N000056135000000213                                                                                                                                                                                    DOMÉSTICO ECONÓMICO           1/2  DESCONOCIDO                                                                                                                       0000000052SANTIAGO DE QUERETARO                   SANTIAGO DE QUERÉTARO                   1DCE001260000000004DOMESTICO ECONOMICO                          00000000050000000005  LCL  011146595   VILLAS DE SANTIAGO DE QUERETAR                                                                                                                                                                                                                                                              
0001M08202408L20000427649CERDA ELIZALDE, JUAN CARLOS                                                                                             0001000056135000000215                      SANTIAGO DE LA PEŃA           22002173000530000665825IOTN01-DISTRITO NORORIENTE            110105349    0013SN 000000661000000001L   000000661000000000L CB000000663000000002L   000000663000000000L CB000000663000000664000000674N00000000000000000000000          NCONTADOR                                NS  N                                                                                                              000452143000000000               1N000056135000000215                                                                                                                                                                                    DOMÉSTICO ECONÓMICO           1/2  OTROS (ESPECIFICAR)                                                                                                               0000000053SANTIAGO DE QUERETARO                   SANTIAGO DE QUERÉTARO                   1OTI002300000000002DOMESTICO ECONOMICO                          00000000030000000004  LCL  011182945   VILLAS DE SANTIAGO DE QUERETAR                                                                                                                                                                                                                                                              
0001M08202408L20000611452CORONEL ESTRELLA, FERNANDO                                                                                              0001000056135000000217                      SANTIAGO DE LA PEŃA           22002173000540000665826IOTN01-DISTRITO NORORIENTE            1186067779   0013SN 000000722000000006M 19000000722000000000TETE000000738000000009M 19000000748000000010ITIT000000748000000749000000768N00000000000000000000000          NCONTADOR                                NS  N                                                                                                              000452144000000000               1N000056135000000217                                                                                                                                                                140100131282029     DOMÉSTICO ECONÓMICO           1/2  OTROS (ESPECIFICAR)                                                                                                               0000000054SANTIAGO DE QUERETARO                   SANTIAGO DE QUERÉTARO                   1OTI001260000000006DOMESTICO ECONOMICO                          00000000070000000003  ICL  011159518   VILLAS DE SANTIAGO DE QUERETAR                                                                                                                                                                                                                                                              
0001M08202408L20000304793MENDOZA GONZALEZ, EVA                                                                                                   0001000056135000000219                      SANTIAGO DE LA PEŃA           22002173000550000665827IOTN01-DISTRITO NORORIENTE            1186073900   0013SN 000000527000000006L   000000532000000005L   000000541000000009L   000000547000000006L   000000547000000549000000567N00000000000000000000000          NCONTADOR                                NS  N                                                                                                              000452145000000000               1N000056135000000219                                                                                                                                                                                    DOMÉSTICO ECONÓMICO           1/2  OTROS (ESPECIFICAR)                                                                                                               0000000055SANTIAGO DE QUERETARO                   SANTIAGO DE QUERÉTARO                   1OTI001260000000009DOMESTICO ECONOMICO                          00000000080000000007  LCL  011161009   VILLAS DE SANTIAGO DE QUERETAR                                                                                                                                                                                                                                                              
0001M08202408L20000569822PADILLA JIMENEZ, GUADALUPE                                                                                              0001000056135000000221                      SANTIAGO DE LA PEŃA           22002173000560000665828IINN01-DISTRITO NORORIENTE            120297560    0013SN 000000017000000001L   000000017000000000L   000000019000000002L   000000020000000001L   000000020000000020000000031N00000000000000000000000          NCONTADOR                                NS  N                                                                                                              000452146000000000               1N000056135000000221                                                                                                                                                                                    DOMÉSTICO ECONÓMICO           1/2  INTERIOR                                                                                                                          0000000056SANTIAGO DE QUERETARO                   SANTIAGO DE QUERÉTARO                   1INI002300000000001DOMESTICO ECONOMICO                          00000000010000000001  LCL  011148042   VILLAS DE SANTIAGO DE QUERETAR                                                                                                                                                                                                                                                              
0001M08202408L20000273944JOSE JOHEL BAHENA HERNANDEZ                                                                                             0001000056135000000223                      SANTIAGO DE LA PEŃA           22002173000570000665829IOTN01-DISTRITO NORORIENTE            1186067775   0013SN 000000290000000008L   000000298000000008L   000000307000000009L   000000315000000008L   000000315000000318000000335N00000000000000000000000          NCONTADOR                                NS  N                                                                                                              000452147000000000               1N000056135000000223                                                                                                                                                                140100132282032     DOMÉSTICO ECONÓMICO           1/2  OTROS (ESPECIFICAR)                                                                                                               0000000057SANTIAGO DE QUERETARO                   SANTIAGO DE QUERÉTARO                   1OTI001260000000008DOMESTICO ECONOMICO                          00000000080000000008  LCL  011159797   VILLAS DE SANTIAGO DE QUERETAR                                                                                                                                                                                                                                                              
0001M08202408L20000399343SALINAS RAMIREZ, J. JUAN                                                                                                0001000057873000000225                      SANTIAGO DE LA PEŃA           22002173000580000665830ECEN01-DISTRITO NORORIENTE            110040446    0013SN 000000756000000000TETE000000775000000007M 19000000786000000011L   000000798000000012L   000000798000000800000000821N00000000000000000000000          NCONTADOR                                NS  N                                                                                                              000452148000000000               1N000056135000000225                                                                                                                                                                                    DOMÉSTICO ECONÓMICO           1/2  CUADRO EN EL EXTERIOR                                                                                                             0000000058SANTIAGO DE QUERETARO                   SANTIAGO DE QUERÉTARO                   1CEE001900000000009DOMESTICO ECONOMICO                          00000000120000000006  LCL  011149399   VILLAS DE SANTIAGO DE QUERETAR                                                                                                                                                                                                                                                              
0001M08202408L20000278490GALLEGOS ORTIZ, GERARDO                                                                                                 0001000056135000000227                      SANTIAGO DE LA PEŃA           22002173000590000665831IOTN01-DISTRITO NORORIENTE            1176005717   0013SN 000001041000000014L   000001063000000022L   000001080000000017L   000001098000000018ITIT000001098000001107000001134N00000000000000000000000          NCONTADOR                                NS  N                                                                                                              000452149000000000               1N000056135000000227                                                                                                                                                                                    DOMÉSTICO ECONÓMICO           1/2  OTROS (ESPECIFICAR)                                                                                                               0000000059SANTIAGO DE QUERETARO                   SANTIAGO DE QUERÉTARO                   1OTI001260000000017DOMESTICO ECONOMICO                          00000000160000000017  LCL  011159499   VILLAS DE SANTIAGO DE QUERETAR                                                                                                                                                                                                                                                              
0001M08202408L20000460359ARRIOLA VAZQUEZ, ELENA                                                                                                  0001000056135000000229                      SANTIAGO DE LA PEŃA           22002173000600000665832ICIN01-DISTRITO NORORIENTE            1180024131   0013SN 000000652000000009L   000000663000000011L   000000675000000012L   000000686000000011L   000000686000000692000000711N00000000000000000000000          NCONTADOR                                NS  N                                                                                                              000452150000000000               1N000056135000000229                                                                                                                                                                                    DOMÉSTICO ECONÓMICO           1/2  CUADRO EN EL INTERIOR                                                                                                             0000000060SANTIAGO DE QUERETARO                   SANTIAGO DE QUERÉTARO                   1CII001260000000010DOMESTICO ECONOMICO                          00000000110000000013  LCL  011165350   VILLAS DE SANTIAGO DE QUERETAR                                                                                                                                                                                                                                                              
0001M08202408L20000473563MORALES RUVALCABA, FRANCISCO JOSE                                                                                       0001000056135000000231                      SANTIAGO DE LA PEŃA           22002173000610000665833IOTN01-DISTRITO NORORIENTE            110105343    0013SN 000001271000000009L   000001280000000009L   000001290000000010L   000001299000000009L   000001299000001301000001319N00000000000000000000000          NCONTADOR                                NS  N                                                                                                              000452151000000000               1N000056135000000231                                                                                                                                                                                    DOMÉSTICO ECONÓMICO           1/2  OTROS (ESPECIFICAR)                                                                                                               0000000061SANTIAGO DE QUERETARO                   SANTIAGO DE QUERÉTARO                   1OTI002300000000010DOMESTICO ECONOMICO                          00000000080000000006  LCL  011148621   VILLAS DE SANTIAGO DE QUERETAR                                                                                                                                                                                                                                                              
0001M08202408L20000464825GARCIA CRUZ, ELIO                                                                                                       0001000056135000000233                      SANTIAGO DE LA PEŃA           22002173000620000665834ECEN01-DISTRITO NORORIENTE            15120496     0013SN 000004371000000009L   000004381000000010L   000004393000000012L   000004402000000009L   000004402000004405000004422N00000000000000000000000          NCONTADOR                                NS  N                                                                                                              000452152000000000               1N000056135000000233                                                                                                                                                                                    DOMÉSTICO ECONÓMICO           1/2  CUADRO EN EL EXTERIOR                                                                                                             0000000062SANTIAGO DE QUERETARO                   SANTIAGO DE QUERÉTARO                   1CEE002300000000009DOMESTICO ECONOMICO                          00000000090000000008  LCL  011148905   VILLAS DE SANTIAGO DE QUERETAR                                                                                                                                                                                                                                                              
0001M08202408L20000607048HERNANDEZ GOMEZ, EDUARDO                                                                                                0001000056135000000235                      SANTIAGO DE LA PEŃA           22002173000630000665835IOTN01-DISTRITO NORORIENTE            1186067826   0013SN 000000330000000005M 18000000330000000000TETE000000340000000008M 19000000340000000000TETE000000340000000340000000351N00000000000000000000000          NCONTADOR                                NS  N                                                                                                              000452153000000000               1N000056135000000235                                                                                                                                                                                    DOMÉSTICO ECONÓMICO           1/2  OTROS (ESPECIFICAR)                                                                                                               0000000063SANTIAGO DE QUERETARO                   SANTIAGO DE QUERÉTARO                   1OTI001260000000002DOMESTICO ECONOMICO                          00000000020000000000  TCL  011148665   VILLAS DE SANTIAGO DE QUERETAR                                                                                                                                                                                                                                                              
0001M08202408L20000495329CIRETT AVILA, JORGE ERNESTO                                                                                             0001000056135000000237                      SANTIAGO DE LA PEŃA           22002173000640000665836EDCN01-DISTRITO NORORIENTE            1196197229   0013SN 000000365000000006L   000000372000000007L   000000378000000006L   000000383000000005L   000000383000000385000000403N00000000000000000000000          NCONTADOR                                NS  N                                                                                                              000452154000000000               1N000056135000000237                                                                                                                                                                140100131282001     DOMÉSTICO ECONÓMICO           1/2  DESCONOCIDO                                                                                                                       0000000064SANTIAGO DE QUERETARO                   SANTIAGO DE QUERÉTARO                   1DCE001260000000009DOMESTICO ECONOMICO                          00000000080000000006  LCL  011147372   VILLAS DE SANTIAGO DE QUERETAR                                                                                                                                                                                                                                                              
0001M08202408L20000613614GUTIERREZ GARCIA, MARIO IVAN                                                                                            0001000072148000000236                      SANTIAGO LOS LLANOS GRANDES   22002173000660000668036IJCN01-DISTRITO NORORIENTE            1186073854   0013SN 000000393000000007L   000000398000000005L   000000412000000014L   000000418000000006L   000000418000000420000000438N00000000000000000000000          NCONTADOR                                NS  N                                                                                                              000454202000000000               1S000072148000000236                                                                                                                                                                                    DOMÉSTICO ECONÓMICO           1/2  JARDIN O COCHERA                                                                                                                  0000000065SANTIAGO DE QUERETARO                   SANTIAGO DE QUERÉTARO                   1JCI001260000000008DOMESTICO ECONOMICO                          00000000080000000009  LCL  011146583   VILLAS DE SANTIAGO DE QUERETAR                                                                                                                                                                                                                                                              
0001M08202408L20000383878MENDEZ MORALES, FRANCISCO                                                                                               0001000072148000000234                      SANTIAGO LOS LLANOS GRANDES   22002173000670000668034ICIN01-DISTRITO NORORIENTE            1151048545   0013SN 000000702000000010L   000000719000000017L   000000734000000015L   000000749000000015L   000000749000000751000000780N00000000000000000000000          NCONTADOR                                NS  N                                                                                                              000454200000000000               1N000072148000000234                                                                                                                                                                                    DOMÉSTICO ECONÓMICO           1/2  CUADRO EN EL INTERIOR                                                                                                             0000000066SANTIAGO DE QUERETARO                   SANTIAGO DE QUERÉTARO                   1CII001260000000014DOMESTICO ECONOMICO                          0000000009000000000618MCL  011148688   VILLAS DE SANTIAGO DE QUERETAR                                                                                                                                                                                                                                                              
0001M08202408L20000550190PACHECO MONROY, JORGE                                                                                                   0001000072148000000232                      SANTIAGO LOS LLANOS GRANDES   22002173000680000668032IOTN01-DISTRITO NORORIENTE            110141528    0013SN 000000262000000000TETE000000262000000000TETE000000262000000000TETE000000262000000000TETE000000262000000262000000273N00000000000000000000000          NCONTADOR                                NS  N                                                                                                              000454198000000000               1N000072148000000232                                                                                                                                                                                    DOMÉSTICO ECONÓMICO           1/2  OTROS (ESPECIFICAR)                                                                                                               0000000067SANTIAGO DE QUERETARO                   SANTIAGO DE QUERÉTARO                   1OTI002300000000000DOMESTICO ECONOMICO                          00000000000000000000  TCL  011148418   VILLAS DE SANTIAGO DE QUERETAR                                                                                                                                                                                                                                                              
